:020000040000FA
:1000000050480010E1010000E9010000EB01000090
:10001000ED010000EF010000F10100000000000010
:10002000000000000000000000000000F3010000DC
:10003000F501000000000000F7010000E1070000EA
:10004000FB0100003D0900005109000063090000A8
:10005000750900005D010100FB010000FB010000CB
:100060007F020100FB010000FB010000FB0100001A
:10007000FB010000FB010000FB010000FB01000090
:10008000FB01000079010000FB010000FB01000002
:10009000FB010000FB010000FB010000FB01000070
:1000A00051150100FB010000FB010000FB010000F5
:1000B000FB010000FB010000FB010000FB01000050
:1000C000FB010000FB010000FB010000FB01000040
:1000D000FB010000FB010000A9050000FB0100007E
:1000E000FB010000DFF80CD012F0A0FB0048004735
:1000F000050600005048001070B505460C46A4F1F6
:1001000020000B4A02EB00111022284600F0ABF849
:1001100070BDA1F1200202EB4202064B03EB82020A
:100120001368036053684360926882607047000000
:10013000388E0100289401000D4843F60C3102E08E
:1001400000220270401C0A1EA1F1010399B2F7D1EE
:1001500008484FF45C5102E0FF220270401C0A1E66
:10016000A1F1010399B2F7D1014B83F80C24704738
:10017000600200106C06001010B5012115480EF049
:100180007DF950B1144913480EF06AF80120134963
:10019000087001210F480EF079F910BD10B50D4817
:1001A0000DF0ACFE0B480DF0C2FE012109480DF028
:1001B000C7FE0122002107480DF0CEFE11200121CB
:1001C00081404209920002F1E022C2F8001100BF12
:1001D00010BD000000400240784100108200001075
:1001E0000648804706480047FEE7FEE7FEE7FEE7D1
:1001F000FEE7FEE7FEE7FEE7FEE7FEE705EC0000B0
:10020000E50000002DE9F05F0546002092469B4680
:1002100088460646814640241BE02846414647461C
:10022000224612F01EFA53465A46C01A914110D384
:1002300011461846224612F005FA2D1A67EB0108FE
:100240004F4622460120002112F0FCF917EB00096D
:100250004E41201EA4F10104DFDC484631462A4607
:100260004346BDE8F09F40EA01039B0703D009E045
:1002700008C9121F08C0042AFAD203E011F8013B92
:1002800000F8013B521EF9D27047D2B201E000F8EB
:10029000012B491EFBD270470022F6E710B513462A
:1002A0000A4604461946FFF7F0FF204610BD10B578
:1002B000002200E0521C835C8C5CA34201D1002B25
:1002C000F8D1D8B2E1B2401A10BD962300221146EF
:1002D00012F0F2B90EB5C10F80EAE0700844CA0707
:1002E000002140F233438DE80E000A460B4612F01F
:1002F00020FA03B000BD11F071BF7047FFFFFFFF90
:1003000040F20120974908609749C1F88401954956
:1003100008310860091D0860091D0860091D086092
:10032000091D0860091D0860091D0860091D086095
:10033000091D0860091D0860091D0860091D086085
:10034000091D0860091D0860091D0860091D086075
:10035000091D0860091D0860091D0860091D086065
:10036000091D0860091D0860091D0860091D086055
:10037000091D0860091D0860091D0860091D086045
:10038000091D0860091D0860091D0860091D086035
:10039000091D0860091D0860091D0860091D086025
:1003A000091D0860091D0860091D0860091D086015
:1003B000091D0860091D0860091D0860091D086005
:1003C000091D0860091D0860091D0860091D0860F5
:1003D000091D0860091D0860091D0860091D0860E5
:1003E000091D0860091D08605E49E43108605D4927
:1003F00040390860091D0860091D086059493039F5
:100400000860584920390860564910390860091DAC
:100410000860091D08605449C1F87C0170472DE946
:10042000F04100BF00BF5148006840F400604F49F0
:10043000C439C1F8C40041F61F704D49086001205D
:100440004C49086000208860FFF75AFF4A4800685E
:100450004A49B0FBF1F74548C438D0F8000100B173
:100460007F084FF47A70B0FBF7F404F11300B0FB8F
:10047000F4F0404908630F2048630020886301209E
:10048000C86304F11300B0FBF4F0801C0864012081
:10049000486404F13E00B0FBF4F0886404F13E00CF
:1004A000B0FBF4F0C8640F20086504F13E00B0FB17
:1004B000F4F0486501208865886240F203303049D5
:1004C00008604FF48D402B49C1F800012C49091FE9
:1004D00008606421002000F0B3F940F28310254940
:1004E0000862C821002000F0ABF940F20310214956
:1004F000086202204862002600E0761C802EFCD3B1
:1005000041F68465A5F1100085B22D1105FB07F0B9
:100510004FF47A71B0FBF1F085B216484562832042
:10052000144908621748D0F8008000200862144877
:10053000001F006840F40020C1F8000101210020E4
:1005400000F07EF90121002000F07AF908480068E7
:1005500020F01F0848F011000449C439C1F8DC013B
:10056000BDE8F08180C1024000C00240C4C00F401D
:10057000DCC10F4000C00920A400001040420F0061
:1005800004C10920004006A010B5002807DACA06F9
:10059000140E9B4A00F00F031B1FD45403E0CA063D
:1005A000130E984A135410BD10B5012213210020D8
:1005B0000EF04EFC28B36FF07F4400E0641E002C68
:1005C000FCD19148007830B100208F4908700F208D
:1005D0008E49086005E001208B49087002208B4994
:1005E00008604FF4002100200EF05DFC262000F092
:1005F0001F0201219140864A430942F8231000BF9F
:1006000000BF10BD8CB000200EF0C7FD8046002753
:100610004FF47A70B8FBF0F0451EB5F1807F00D33F
:1006200011E025F07F40401E4FF0E02148611F217E
:100630004FF0FF30FFF7A8FF00204FF0E021886166
:100640000720086100BF0122D10400200EF0E2FB68
:1006500001212620FFF798FF262000F01F0201212C
:1006600091404209920002F1E022C2F8001100BF5D
:100670000EF0B8F80EF032F80FF0FDFC00206249E1
:1006800008704FF416500FF0BCFD0FF09DFFFFF700
:1006900085FD0EF0A7F80DF0F7FFFFF7C0FE002074
:1006A00000F048FA5B494869002100F07CFA01201B
:1006B00000F040FA00200EF06EF80F205349086059
:1006C0008DE00EF015F90446FF2C01D1002700E063
:1006D0007F1C022F03D14FF0501000F069FB4B48F4
:1006E0000068801E0E2878D2DFE800F0074A4351E8
:1006F0000E2E353C58746E5F66714FF0501000F04E
:1007000057FB08F05BFD69E010F02DFE11F01AF9BF
:10071000C6B286B901AA0BA90AA811F06CFBC6B231
:100720004EB910F0C5F8C6B21D213BA009F0F2F891
:100730000120414908704FF0501000F039FB0DF0D6
:10074000EDFE09F057FD49E04FF0501000F030FB8E
:100750000AF0ADFE42E04FF0501000F029FB0AF025
:100760007CFF3BE04FF0501000F022FB0BF063F8F1
:1007700034E04FF0501000F01BFB0AF04CFA2DE073
:100780004FF0501000F014FB0AF04BFE26E04FF043
:10079000501000F00DFB0AF084FA1FE04FF05010EB
:1007A00000F006FB0CF0C1FE18E04FF0501000F016
:1007B000FFFA0BF034FE11E04FF0501000F0F8FAA1
:1007C0000BF04AF90AE008E00CF0EAF806E00DF058
:1007D0004FFB03E00DF0FAF800E000BF00BF70E748
:1007E00016480068401C154908607047134A116894
:1007F00000BF124A1268521A8242FAD370470000B0
:1008000018ED00E000E400E083000010900000100C
:1008100080E100E0300000104D61696E2050092039
:10082000205365636F2050094D5061727409535015
:100830006172740D0A0000007E00001000000010BC
:10084000F8B902224FF040235A600022DA60B04A21
:1008500012684FF47A73B2FBF3F2521E4A434FF020
:1008600040239A61FF221A6004225A6101225A60D1
:1008700000BF4FF04022526802F00102002AF8D176
:100880005BE001281CD10222A24B5A600022DA60F0
:100890009F4A12684FF47A73B2FBF3F2521E4A4336
:1008A0009C4B9A61FF221A6004225A6101225A600D
:1008B00000BF984A526802F00102002AF9D13CE0D8
:1008C00002281CD10222944B5A600022DA60904A1E
:1008D00012684FF47A73B2FBF3F2521E4A438E4B06
:1008E0009A61FF221A6004225A6101225A6000BFF5
:1008F000894A526802F00102002AF9D11DE003285A
:100900001BD10222854B5A600022DA60804A1268AD
:100910004FF47A73B2FBF3F2521E4A437F4B9A6153
:10092000FF221A6004225A6101225A6000BF7B4AEA
:10093000526802F00102002AF9D1704701204FF0FD
:100940004021086076480068401C7549086070477F
:1009500001207049086073480068401C71490860B4
:10096000704701206C4908606F480068401C6E4960
:10097000086070470120694908606C480068401CA5
:100980006A490860704720B901214FF04022516048
:1009900010E0012803D101215E4A51600AE00228DB
:1009A00003D101215C4A516004E0032802D10121F6
:1009B0005A4A5160704720B900214FF040225160DF
:1009C00010E0012803D10021524A51600AE00228B8
:1009D00003D10021504A516004E0032802D10021D4
:1009E0004D4A51607047014631B94FF0402250687E
:1009F00040F00200506016E0012905D1454A5068D8
:100A000040F0020050600EE0022905D1424A5068D1
:100A100040F00200506006E0032904D13F4A5068CC
:100A200040F002005060704770B505460C46F5B9BD
:100A300000203B4908603E48006840F002003C4905
:100A4000C439C1F8C4004FF04020406840F00200B3
:100A50004FF0402148604EF65F20C8600846846130
:100A600003204861012000F048F8012070BD012DED
:100A700014D100202B4908602D48006840F0040084
:100A80002B49C439C1F8C40022488461032021499C
:100A90004861022000F031F80120E7E7022D13D170
:100AA0000020214908602248006840F48000204965
:100AB000C439C1F8C400184884610320164948614C
:100AC00000F01BF80120D1E7032D14D100201749B5
:100AD00008601748006840F400001549C439C1F89F
:100AE000C4000E48846103200C494861042000F0D2
:100AF00004F80120BAE70020B8E700F01F02012146
:100B000091404209920002F1E022C2F800117047C0
:100B1000A80000100080004000000940004009408B
:100B2000180000101C00001020000010240000100D
:100B3000C4C00F4008B5B0B1F949896941F001015D
:100B4000F74A916142F21071009108E0F449896915
:100B500041F40061F24A91610099491E00910099A7
:100B60000029F3D115E0EE49896921F40061EC4ACE
:100B7000916142F21071009102E00099491E0091CA
:100B800000990029F9D1E649896921F00101E44A77
:100B9000916108BDE34A002102E008C808C2491C6F
:100BA0008029FAD370472DE9704381460D46DFF85E
:100BB000788300BF2720DD4908614861DC4908606F
:100BC000DA49C1F87402DB490860091D0860091D93
:100BD0000860091D0860D5498861C861D549483950
:100BE0000860091D0860091D0860091D0860091DCD
:100BF0000860091D0860CD4908624862CD49183176
:100C00000860091D0860CB4930390860091D08607B
:100C1000091D0860091D0860C64910390860C549EA
:100C2000091F0860C3490C390860091D0860BF49E5
:100C3000C1F80001C048006C40F00200BE490864E1
:100C40000846806D40F00A008865BC48D0F8C400B2
:100C500040F00100B949C1F8C400B948006820F06B
:100C60000100B74908600020AD49886108468069E5
:100C700020F00E0088610846806940F00A00886113
:100C80000846806940F0200088610846806920F0AD
:100C9000800088610846806920F480708861084679
:100CA000806920F4007088610846806920F48060C3
:100CB00088610846806920F400608861A148006866
:100CC000A149B0FBF1F09D49C1F8B8019448806892
:100CD00040F08060924988600846806820F02000DB
:100CE00088600846806840F4006088600846806834
:100CF00040F4805088600846806820F40050886086
:100D00000846806820F480408860084680688F49E3
:100D1000084083498860084680688D4908438049B7
:100D20008860002008600846006840F01C50086099
:100D30000846006840F4802008600846006840F4D7
:100D4000807008600846006840F074000860002069
:100D500048600846406840F00060486008464068C7
:100D600040F4002048600846406840F480604860D5
:100D70000846406840F20F11084369494860404600
:100D80000861486115B12846FFF704FF664E00244C
:100D900003E04FF47F0001C6641CB4F5FF3FF8D3B5
:100DA00042F2107400E0641E002CFCD1BDE8708398
:100DB0005D4A002101E001C2491CB1F5FF3FFAD3B1
:100DC00070472DE9F0410C46069FC3F5887CCCEBBB
:100DD0000C1CDFF8548108EBCC1CC2F5F0780CEB4E
:100DE000880100260EE0002501E080C16D1CA2EB09
:100DF000000CAC45F9D8A2EB000CCCF5F07C01EB73
:100E00008C01761CA3EB040CB445ECD8BDE8F08152
:100E100070B5454BB0F5F07F02DAB1F5887F00DBA5
:100E200070BDC0F5F0756D1EC1F58876761EC6EBF7
:100E3000061605EB461403EB84031A6000BFEFE7C8
:100E40002DE9F04F04460D4691469A46DDF824B050
:100E50004C4503DD0FFA89F7A146BCB2554503DDC9
:100E60000FFA8AF7AA46BDB2A9EB04000FFA80F880
:100E7000AAEB050006B2B8F1000F0BD100BF5A462D
:100E800029462046FFF7C4FF681C85B2AA45F6DA5A
:100E9000BDE8F08F56B900BF5A4629462046FFF7F5
:100EA000B7FF601C84B2A145F6DAF1E7B04521DD59
:100EB000C8EB460007B215E05A4629462046FFF720
:100EC000A7FF601C84B2002F08DD681C85B270008B
:100ED000022101FB1800384407B203E0022000FBA6
:100EE000067007B24C45E7D15A4629462046FFF71F
:100EF0008FFF3AE0C6EB480007B22FE05A4629467A
:100F00002046FFF785FF681C85B2002F22DD601C9C
:100F100084B27000022101FB1800384407B21DE0C2
:100F20000080082000820820000001A000C00240CC
:100F300070C2024018C102400080092000C00F406A
:100F4000008C0820A80000109C997400FFFF00FC92
:100F50000000DF01022000FB067007B25545CDD12D
:100F60005A4629462046FFF753FF00BF90E72DE978
:100F7000FF5F06460F4690469946DDF838B0414679
:100F80006846FFF7B9F800241DE01DF804A000250D
:100F900016E0C5F107004AFA00F000F0010038B190
:100FA0003A1991B2721990B24A46FFF731FF06E042
:100FB0003A1991B2721990B25A46FFF729FF6D1C87
:100FC000082DE6D3641C102CDFD3BDE8FF9F2DE96C
:100FD000FE4F06460F4690469946DDF830B0414632
:100FE0006846FFF796F800241DE01DF804A00025D0
:100FF00016E0C5F107004AFA00F000F0010038B130
:101000003A1991B2721990B24A46FFF701FF06E011
:101010003A1991B2721990B25A46FFF7F9FE6D1C57
:10102000082DE6D3641C0C2CDFD3BDE8FE8F2DE920
:10103000F84305460E4614469846DDF8209000BF5A
:1010400014F8017B43463A4631462846CDF80090D5
:10105000FFF78DFFB5F5EC7F03DA05F1080085B2E7
:1010600008E0FF2E04DC002506F1100086B201E046
:101070000025002620780028E2D1BDE8F8832DE97C
:10108000FF4F074688469B463C464546BA4646467D
:101090004FF0000915E0A4F1140188B22946029A24
:1010A000FFF7B6FE601C84B2A6F1140081B2504670
:1010B000029AFFF7ADFE701C86B209F101001FFA1B
:1010C00080F9B9F1280FE6DB3C464546BA4646466C
:1010D0004FF000092BE0A5F1140291B2A4F1140223
:1010E00090B25A46FFF794FE05F1140291B2A4F1B2
:1010F000140290B25A46FFF78BFE601C84B2A6F130
:10110000140291B2AAF1140290B25A46FFF780FE7F
:10111000A6F1140291B20AF1140290B25A46FFF7F6
:1011200077FE701C86B209F101001FFA80F9B9F14F
:101130000A0FD0DB3C464546BA4646464FF000090A
:101140002BE0A5F1140291B204F10A0290B25A46C2
:10115000FFF75EFE05F1140291B204F10A0290B2AB
:101160005A46FFF755FE601C84B206F10A0291B29E
:10117000AAF1140290B25A46FFF74AFE06F10A029B
:1011800091B20AF1140290B25A46FFF741FE701C68
:1011900086B209F101001FFA80F9B9F10A0FD0DB1C
:1011A000BDE8FF8F10B50246002112E001EB81106F
:1011B000F74B185C1378984209D1507801EB8113F2
:1011C000F34C23445B78984201D1084610BD481C7B
:1011D00081B27729EAD30020F8E710B50246002152
:1011E00014E001EB0110EB4B13F810001378984258
:1011F0000AD1507801EB0113E64C04EB43035B7812
:10120000984201D1084610BD481C81B2A629E8D3F6
:101210000020F8E72DE9F04F04460F4615469846A2
:10122000A3464FF0000900262DE0099810F806901B
:101230004FF0000A21E009F0800030B1D64839466D
:1012400002682046FFF7E4FD05E0D34839464268CE
:101250002046FFF7DDFD4FEA49604FEA1069601C48
:1012600084B2A4EB0B00A84203D15C46781C87B281
:1012700006E00AF1010000F0FF0ABAF1080FDADB1C
:1012800000BF701C86B205FB08F0C11700EB51715E
:10129000B6EBE10FC9DBBDE8F08F2DE9F04F054655
:1012A000894692469B46A8460026BBF1000F32D1E4
:1012B00000242DE00AEB0A10B64901EB4000801C27
:1012C000065D00271FE006F0800030B1B2484946B5
:1012D00002682846FFF79CFD05E0AF484946426892
:1012E0002846FFF795FD7006060E681C85B2A5EB33
:1012F0000800102805D1454609F101001FFA80F9C0
:1013000003E0781CC7B2082FDDDB00BF601CC4B24D
:10131000202CCFDB31E000242DE00AEB0A109D49A0
:1013200001EB4000801C065D00271FE006F08000F6
:1013300030B19948494642682846FFF769FD05E003
:101340009548494602682846FFF762FD7006060E7A
:10135000681C85B2A5EB0800102805D1454609F1A7
:1013600001001FFA80F903E0781CC7B2082FDDDB0B
:1013700000BF601CC4B2202CCFDBBDE8F08F2DE98C
:10138000F04F0546894692469B46A8460026BBF18B
:10139000000F31D100242CE00AEB8A107C4908446C
:1013A000801C065D00271FE006F0800030B17A48FF
:1013B000494602682846FFF72BFD05E07648494676
:1013C00042682846FFF724FD7006060E681C85B2A9
:1013D000A5EB0800182805D1454609F101001FFAC0
:1013E00080F903E0781CC7B2082FDDDB00BF601C6A
:1013F000C4B23F2CD0DB30E000242CE00AEB8A1092
:1014000063490844801C065D00271FE006F0800049
:1014100030B16148494642682846FFF7F9FC05E0CB
:101420005D48494602682846FFF7F2FC7006060E42
:10143000681C85B2A5EB0800182805D1454609F1BE
:1014400001001FFA80F903E0781CC7B2082FDDDB2A
:1014500000BF601CC4B23F2CD0DBBDE8F08FF0B5FC
:1014600004460D4616461F463B4622463146284650
:10147000FFF785FF1820F0BDF0B504460D4616466F
:101480001F463B46224631462846FFF706FF1220FC
:10149000F0BD2DE9F84306460D4614461F464FF0B1
:1014A0000008C14652E0207800B950E006EB090080
:1014B00086B2207880281ADD06F11800B0F5F07F9A
:1014C00007DD002605F1160085B2B5F5887F00DD41
:1014D00000252046FFF766FE1FFA80F83B462A46A5
:1014E00031464046FFF7BBFF8146A41C2DE0207823
:1014F0000D280AD105F1160085B2B5F5887F00DD0B
:101500000025641C4FF0000920E020780A2804D14F
:101510000026641C4FF0000918E006F10C00B0F53D
:10152000F07F07DD002605F10C0085B2B5F5887F58
:1015300000DD0025184840680090174822782946A9
:1015400003683046FFF713FD641C00BFABE700BF24
:10155000BDE8F8832DE9F8470546884614464FF064
:10156000000A002634E0207800B932E020783028E4
:1015700007DB2078392804DC207830381FFA80F91E
:101580000EE020782E2809D14FF00A0908E000006B
:10159000F84001002F5F0100280000104FF00B09F8
:1015A0004FEA4917F81707EB5070C01000EBC00165
:1015B000C1EB80109D490844A919009088B23723D7
:1015C00020224146FFF726FE641C06F1200086B269
:1015D000C9E700BFBDE8F8872DE9F84306460D4688
:1015E00014461F464FF00008C14654E0207800B969
:1015F00052E006EB090086B2207880281ADD06F159
:101600001000B0F5F07F07DD002605F1100085B26F
:10161000B5F5887F00DD00252046FFF7DEFD1FFAC7
:1016200080F83B462A4631464046FFF725FF814673
:10163000A41C2FE020780D280AD105F1100085B2F6
:10164000B5F5887F00DD0025641C4FF0000922E01D
:1016500020780A2804D10026641C4FF000091AE003
:1016600006F10800B0F5F07F07DD002605F108005F
:1016700085B2B5F5887F00DD00256D484068009093
:101680006B482278294603683046FFF770FC641CDB
:101690004FF00A0900BFA9E700BFBDE8F8832DE9B4
:1016A000F84306460D4614461F464FF00008C14653
:1016B00054E0207800B952E006EB090086B22078A9
:1016C00080281ADD06F11000B0F5F07F07DD002656
:1016D00005F1100085B2B5F5887F00DD00252046B4
:1016E000FFF77BFD1FFA80F83B462A46314640460D
:1016F000FFF7C2FE8146A41C2FE020780D280AD1F6
:1017000005F1100085B2B5F5887F00DD0025641C69
:101710004FF0000922E020780A2804D10026641C3A
:101720004FF000091AE006F10800B0F5F07F07DD80
:10173000002605F1080085B2B5F5887F00DD00259B
:101740003B48406800903A48227829460368304672
:10175000FFF73DFC641C4FF0080900BFA9E700BF7C
:10176000BDE8F883F0B504461D46062A00DD0A22CE
:1017700002B90122052900DD0521914200DD114653
:10178000002004E020262B4F3E54461CF0B20C28CB
:10179000F8D310460FE00A26B4FBF6F706FB17460F
:1017A0003036471EDFF88CC00CF807600A26B4FB01
:1017B000F6F4461EF0B20028EDDC89B11346084667
:1017C00005E05E1E1B4FBE5DFE545E1EF3B2061E9C
:1017D000A0F10107F8B2F4D12E26164FFE5402E014
:1017E0002026144FBE54A5B900200EE0114E365CE1
:1017F000302E07D10F4F461CBE5D2E2E02D0202664
:101800003E5400E004E0461CF0B2561E8642EDDC79
:1018100000BF561CF2B2104604E00026054F3E54AD
:10182000461CF0B20C28F8D3F0BD0000CC9A0100A1
:10183000280000106C41001038B5002474E0F8480E
:10184000A10004EB440303EB041301EB83010090BC
:1018500088B204EB84014C2303EB01118AB240F2FD
:101860000F13E421FFF7ADFAEE4804EB84014C239B
:1018700003EB01118AB204EB84010901491C0090B9
:1018800088B2E3231946FFF7DBFAE64804EB84014C
:101890004C2303EB01118AB204EB840103EB011129
:1018A000009088B240F20F13E321FFF7C9FA00203D
:1018B00004EB84014C2303EB0111491C8AB204EBB5
:1018C000840103EB0111491C009088B240F20F1310
:1018D000E321FFF7B5FA002004EB84014C2303EB6E
:1018E0000111891C8AB204EB840103EB0111891CEC
:1018F000009088B240F20F13E321FFF7A1FA002015
:1019000004EB84014C2303EB0111C91C8AB204EBE4
:10191000840103EB0111C91C009088B240F20F133F
:10192000E321FFF78DFA641C062C88D338BD10B56F
:10193000FFF782FFBA48BC4948606FF07F400860FB
:101940000023BAA2F1215420FFF746FE0023B9A2DA
:10195000F121A420FFF740FE10BD70B50546FFF74A
:101960006BFFAF48B04948606FF07F4008604DBBE7
:10197000002424E0042C10D104EB4401AE4B03EB13
:10198000410204EB8401542303EB01110E3188B2B0
:101990000023F121FFF720FE0FE004EB4401A64BEA
:1019A00003EB410204EB8401542303EB01111D31CD
:1019B00088B20023F121FFF70FFE601CC4B2052C92
:1019C000D8DB51E000244DE0042C11D1611D01EB66
:1019D0004101994B03EB410204EB8401542303EBD7
:1019E00001110E3188B20023F121FFF7F5FD37E038
:1019F0008CB9611D01EB41018F4B03EB410204EBFC
:101A00008401542303EB0111183188B20023F12122
:101A1000FFF7E2FD24E0032C11D1611D01EB410130
:101A2000854B03EB410204EB8401542303EB0111CA
:101A30000A3188B20023F121FFF7CEFD10E0611DCD
:101A400001EB41017C4B03EB410204EB8401542385
:101A500003EB01111D3188B20023F121FFF7BCFD1A
:101A6000601CC4B2052CAFDB70BD10B5FFF7E4FEFF
:101A70006B486D4948606FF07F40086000236FA29B
:101A8000F1215420FFF7A8FD00236DA2F121A4202D
:101A9000FFF7A2FD10BD10B5FFF7CEFE604862490A
:101AA00048606FF07F400860002366A2F121542057
:101AB000FFF792FD10BD10B5FFF7BEFE6FF07F403F
:101AC00059490860564848605F48D0F84C030128DF
:101AD00012D100235DA2F2215320FFF77DFD0023E8
:101AE0005CA2F221A320FFF777FD00235BA2F22185
:101AF000FC20FFF771FD15E05348D0F84C0388B97E
:101B0000002358A2F2215320FFF766FD002358A2BC
:101B1000F221A320FFF760FD002358A2F221FC2050
:101B2000FFF75AFD10BD10B50446FFF785FE002CE7
:101B300035D16FF07F403C490860394848604248E1
:101B4000D0F84C03012812D1002340A2F2215320E7
:101B5000FFF742FD00233FA2F221A320FFF73CFD47
:101B600000233EA2F221FC20FFF736FDDAE03648E2
:101B7000D0F84C030028F9D1002342A2F2215320CF
:101B8000FFF72AFD00233AA2F221A320FFF724FD4C
:101B900000233AA2F221FC20FFF71EFDC2E0012C37
:101BA0003DD16FF07F40204908601D4848602648BD
:101BB000D0F84C03012813D1002335A2F221532081
:101BC000FFF70AFD002335A2F221A320FFF704FD51
:101BD000002335A2F22140F29310FFF7FDFC16E03E
:101BE0001948D0F84C0390B9002331A2F2215320B8
:101BF000FFF7F2FC002331A2F221A320FFF7ECFC57
:101C0000002331A2F22140F29310FFF7E5FC0023FC
:101C10002FA2F22140F2BD10FFF7DEFC82E059E076
:101C20003800310068436900280000106D73656357
:101C30000000000073656300438C0100487A0000D7
:101C40004B487A002A310000600200104D45415394
:101C5000534554004E6F2E4449535000434F554E48
:101C600054200000B2E2C1BFC9E8D6C300000000A2
:101C7000B5B5BAC5CFD4CABE00000000B5B5BCC664
:101C8000CAFD0000B2E2C1BFCFD4CABE000000004E
:101C900046494C4520534554000000005361766589
:101CA00044617461000000004D4F52450000000087
:101CB000CEC4BCFEB9DCC0ED00000000B1A3B4E6A8
:101CC000CAFDBEDD00000000B8FCB6E00000000068
:101CD000322F32006FF07F40FE490860FE484860B6
:101CE000FE48D0F84C0301280CD10023FCA2F221BD
:101CF0005320FFF771FC0023FBA2F221A320FFF782
:101D00006BFC0FE0F548D0F84C0358B90023F8A25B
:101D1000F2215320FFF760FC0023F7A2F221A32059
:101D2000FFF75AFC10BD10B5FFF786FD6FF07F403E
:101D3000E8490860E8484860E848D0F84C030128C2
:101D40000CD10023EEA2E7215420FFF745FC00232D
:101D5000EDA2FB215420FFF73FFC0FE0DF48D0F855
:101D60004C0358B90023EAA2E7215420FFF734FCC2
:101D70000023E9A2FB215420FFF72EFCD748D0F81E
:101D80004C0301280ED10023E5A2F1214FF4A270EB
:101D9000FFF722FC0023E4A2F1214FF4CA70FFF701
:101DA0001BFC11E0CD48D0F84C0368B90023E0A239
:101DB000F1214FF4A270FFF70FFC0023DEA2F12106
:101DC0004FF4CA70FFF708FC10BD10B50446FFF7CA
:101DD00033FD0CB1012C69D16FF07F40BD49086023
:101DE000BD484860BD48D0F84C0301282CD10023E1
:101DF000D3A2F1215420FFF7EFFB0023D2A2E72169
:101E0000A420FFF7E9FB0023D1A2FB21A420FFF7C8
:101E1000E3FB0023D0A2E721F420FFF7DDFB002342
:101E2000CBA2FB21F420FFF7D7FB0023BCA2F121BA
:101E30004FF4A270FFF7D0FB0023BBA2F1214FF4B7
:101E4000CA70FFF7C9FB81E0A448D0F84C03002812
:101E50007CD10023C2A2F1215420FFF7BDFB002357
:101E6000C1A2E721A420FFF7B7FB0023C0A2FB21FA
:101E7000A420FFF7B1FB0023BFA2E721F420FFF766
:101E8000ABFB0023BAA2FB21F420FFF7A5FB002344
:101E9000A7A2F1214FF4A270FFF79EFB0023A6A298
:101EA000F1214FF4CA70FFF797FB4FE06FF07F40CE
:101EB00088490860884848608848D0F84C03012861
:101EC00020D100239EA2F1215420FFF785FB00239F
:101ED0009FA2E721A420FFF77FFB0023A8A2FB21FC
:101EE000A420FFF779FB00238DA2F1214FF4A2700B
:101EF000FFF772FB00238CA2F1214FF4CA70FFF7A9
:101F00006BFB23E07548D0F84C03F8B9002394A28A
:101F1000F1215420FFF760FB002395A2E721A420C4
:101F2000FFF75AFB002398A2FB21A420FFF754FBE4
:101F300000237FA2F1214FF4A270FFF74DFB002395
:101F40007DA2F1214FF4CA70FFF746FB10BD10B51A
:101F50000446FFF771FC002C44D16FF07F405D49CF
:101F600008605D4848605D48D0F84C03012819D1ED
:101F7000002387A2F2215320FFF72EFB002386A225
:101F8000F221A320FFF728FB002385A2F221F320F2
:101F9000FFF722FB002384A2F22140F24310FFF757
:101FA0001BFB83E14D48D0F84C030028F9D10023F6
:101FB000AFF23032F2215320FFF70EFB00237CA258
:101FC000F221A320FFF708FB00237CA2F221F320DB
:101FD000FFF702FB00237CA2F22140F24310FFF73F
:101FE000FBFA63E1012C73D16FF07F40394908603F
:101FF000394848603948D0F84C03012833D10023D0
:1020000074A2E7215420FFF7E7FA002373A2FB2113
:102010005420FFF7E1FA002372A2E721A420FFF782
:10202000DBFA002371A2FB21A420FFF7D5FA0023DD
:1020300070A2F121F420FFF7CFFA00236BA2FB215D
:10204000F420FFF7C9FA0023AFF2A432E7214FF4DE
:10205000CA70FFF7C1FA002368A2FB214FF4CA70CF
:10206000FFF7BAFA22E11D48D0F84C03002898D1B6
:10207000002364A2E7215420FFF7AEFA0023AFF259
:10208000CC32FB215420FFF7A7FA00235FA2E721FF
:10209000A420FFF7A1FA002349A2FB21A420FFF707
:1020A0009BFA00235BA2F121F420FFF795FA0023AD
:1020B00043A2FB21F420FFF78FFA0023AFF2F8329E
:1020C000E7214FF4CA70FFF787FA00234BA2A5E07F
:1020D000AAE0000028000010380031006002001063
:1020E00043414E43454C2000434F4E4649524D001C
:1020F0002020C8A1CFFB20002020C8B7C8CF2000D7
:10210000434C4541000000004C495354000000007E
:10211000C7E5B3FD00000000B1EDB8F1000000001C
:102120004C617374205000004E657874205000009C
:10213000C9CFD2BBD2B30000CFC2D2BBD2B3000052
:1021400044656C526F7700004C494E45000000001A
:1021500041544F55000000004C4F47200000000044
:10216000C9BEB3FDD0D00000CFDFD0D40000000046
:10217000D7D4B6AF00000000B6D4CAFD00000000FE
:10218000434F505900000000B8B4D6C6000000000C
:102190004D45414449535000434F5252454354002A
:1021A0004C4D54534554000053595353455400006B
:1021B000D3C3BBA7D0A3D5FD00000000BCABCFDECE
:1021C000C9E8D6C300000000CFB5CDB3C9E8D6C377
:1021D0000000000046494C45000000004D414E45BE
:1021E00000000000535953200000000053455420C4
:1021F00000000000544F4F4C0000000020322F32EE
:1022000000000000CEC4BCFE00000000CFB5CDB37E
:1022100000000000B9A4BEDF00000000FB214FF465
:10222000CA70FFF7D9F941E06FF07F40FE490860BE
:10223000FE484860FE48D0F84C03012819D100231D
:10224000FCA2F2215320FFF7C7F90023FCA2F221E0
:10225000A320FFF7C1F90023FCA2F221F320FFF72E
:10226000BBF90023FCA2F22140F24310FFF7B4F9BE
:102270001CE0EF48D0F84C03C0B90023F9A2F221CA
:102280005320FFF7A9F90023F9A2F221A320FFF7B9
:10229000A3F90023F9A2F221F320FFF79DF900230F
:1022A000F9A2F22140F24310FFF796F910BD10B5E4
:1022B0006FF07F40DC490860DC484860DC48D0F8BB
:1022C0004C03012806D10023F2A2F2215320FFF78C
:1022D00083F90AE0D648D0F84C0330B90023AFF2B6
:1022E0007C62F2215320FFF777F910BD10B56FF033
:1022F0007F40CD490860CD484860CD48D0F84C03B8
:1023000001281AD10023CBA2F2215320FFF764F950
:102310000023CBA2F221A320FFF75EF90023DFA266
:10232000F2214FF48370FFF757F90023CAA2F2217C
:1023300040F29310FFF750F91DE0BD48D0F84C0370
:10234000C8B90023C7A2F2215320FFF745F90023A3
:10235000C7A2F221A320FFF73FF90023D1A2F22167
:102360004FF48370FFF738F90023C7A2F22140F23F
:102370009310FFF731F910BD08B5CC481623D222CF
:10238000002100900846FEF71CFD08BD08B5C848AE
:10239000CA2340F2DF125C2100900020FEF711FDFD
:1023A00008BD08B5C1481623A022002100900846A8
:1023B000FEF707FDFFF740FAFFF7E8FF08BD10B58D
:1023C000FFF7EFFF6FF07F4097490860B74848601C
:1023D0009748D0F84C03012806D10023B54A0421C0
:1023E0001846FFF7F9F809E09148D0F84C0328B9EE
:1023F0000023B14A04211846FFF7EEF86FF07F4042
:10240000894908604FF050104860002491E0032C87
:102410002CD28748D0F84C03012811D104EB84005A
:10242000A64B03EB400204EB440000EBC4001A236C
:1024300003EB400081B200231846FFF7CDF843E0DC
:102440007B48D0F84C0340BB04EB84009C4B03EB6F
:10245000400204EB440000EBC4001A2303EB4000ED
:1024600081B200231846FFF7B7F82DE07048D0F886
:102470004C03012812D104EB8400904B03EB400283
:10248000E01E00EB400303EBC0001A2303EB400007
:1024900081B20023FA20FFF79FF815E06448D0F8D6
:1024A0004C0388B904EB8400854B03EB4002E01E2B
:1024B00000EB400303EBC0001A2303EB400081B2A2
:1024C0000023FA20FFF788F85948D0F84C03012878
:1024D00015D10023794A3232D2211846FFF77CF811
:1024E0000023764A3C32D2217820FFF775F800238A
:1024F000724A4632D221FA20FFF76EF818E04C48B3
:10250000D0F84C03A0B900236D4A3232D2211846CC
:10251000FFF762F800236A4A3C32D2217820FFF7A5
:102520005BF80023664A4632D221FA20FFF754F8BE
:10253000641C052CFFF46BAFFFF7BDFA10BD08B5A6
:102540005B48BE2340F2DF12A02100900020FEF77E
:1025500038FC08BD08B555481623A022002100907C
:102560000846FEF72EFCFFF767F9FFF7E8FF08BD06
:1025700038B504464FF050102B494860514800EBE5
:1025800084020123C8211420FFF726F84E4800EBEF
:1025900084020123C8214FF48C70FFF71DF84448D2
:1025A000214948604948372328227A210090502049
:1025B000FEF730FE4648372328227A210090782003
:1025C000FEF728FE4348372328227A2100908C20EA
:1025D000FEF720FE38BD10B5FFF7BCFF6FF07F405F
:1025E00011490860314848601148D0F84C0301286F
:1025F00007D100232F4A163204211846FEF7ECFFBC
:102600000AE00B48D0F84C0330B900232A4A1632AE
:1026100004211846FEF7E0FF6FF07F400249086092
:102620004FF05010486057E028000010380031008B
:10263000600200104320436F727265740000000056
:102640005220436F7272657400000000457869740F
:102650005361766500000000436C6520436F727221
:1026600000000000B5E7C8DDD0A3D5FD00000000E4
:10267000B5E7D7E8D0A3D5FD00000000CDCBB3F679
:10268000B1A3B4E600000000C7E5B3FDD0A3D5FDBB
:10269000000000004D6561735365740045786974EE
:1026A00000000000CDCBB3F600000000F3520300A1
:1026B00034346500318901003F8801002D7B010021
:1026C0007D7B01005D7E0100B97E0100F1AC01005F
:1026D00034BF010047C00100002455E0032C28D27C
:1026E000F948D0F84C0301280FD1F84800EBC40298
:1026F00004EB440000EBC4001A2303EB400081B25A
:1027000000231846FEF768FF3DE0EF48D0F84C0381
:1027100020BBEF4800EBC40204EB440000EBC40014
:102720001A2303EB400081B200231846FEF754FF42
:1027300029E0E548D0F84C03012810D1E34800EB2C
:10274000C402E01E00EB400303EBC0001A2303EBBE
:10275000400081B20023FA20FEF73EFF13E0DA4882
:10276000D0F84C0378B9DA4800EBC402E01E00EB65
:10277000400303EBC0001A2303EB400081B20023A7
:10278000FA20FEF729FF641C062CA7D3CE4991F846
:102790008803FFF7EDFE0020FFF7C5F910BD08B56F
:1027A000CC48A02340F2DF12562100900020FEF713
:1027B00008FBC848E32340F2DF12C121009000204B
:1027C000FEF7FFFA08BD08B5C3481623B222002160
:1027D00000900846FEF7F5FAFFF72EF8FFF7DFFF47
:1027E00008BD2DE9F04104460D461646BB4B1B5D66
:1027F00003EB4303BA4FDA19B1B2A8B20023FEF7D4
:10280000EBFEBDE8F08110B5FFF7DDFF6FF07F4014
:10281000B4490860B0484860AB48D0F84C03012880
:1028200006D10023B04A04211846FEF7D5FE09E080
:10283000A548D0F84C0328B90023AC4A0421184617
:10284000FEF7CAFE6FF07F40A64908604FF05010B7
:102850004860002479E0012C27D19B48D0F84C0334
:1028600001280ED1C4EBC401A14BCA1804EB8401AA
:102870001E2303EB411188B200231821FEF7ACFEA2
:1028800062E09148D0F84C0300285DD1C4EBC4014C
:10289000984BCA1804EB84011E2303EB411188B244
:1028A00000231821FEF798FE4EE0022C26D1864820
:1028B000D0F84C0301280ED1C4EBC4018C4BCA18CC
:1028C00004EB8401282303EB411188B20023182173
:1028D000FEF782FE38E07C48D0F84C0308BBC4EB1E
:1028E000C401844BCA1804EB8401282303EB411173
:1028F00088B200231821FEF76FFE25E07248D0F859
:102900004C0301280ED1C4EBC401794BCA1804EB67
:1029100084014FF6FF7303EA411000231821FEF7EC
:102920005BFE11E06848D0F84C0368B9C4EBC40101
:10293000704BCA1804EB84014FF6FF7303EA411091
:1029400000231821FEF748FE641C032C83D35E4845
:10295000D0F8900300EB400101EBC000664942183B
:10296000012318213C20FEF737FE574A92F8EC105D
:102970000023D2F8E8000622FEF7F4FE01235F4AA6
:102980001821FA20FEF728FE4F48D0F8F00000EB9F
:1029900040005B494218012318214FF4A070FEF754
:1029A0001BFE49491822D1F888034FF4A571FFF79F
:1029B00018FF002353A22C211846FEF770FE0023B7
:1029C00051A22C217820FEF76AFE002350A22C2170
:1029D000FA20FEF764FE00234FA22C2140F29D1046
:1029E000FEF75DFE06243FE0A01F012801D907285D
:1029F00002D3A01F082803D936483A49486003E0AB
:102A00004FF0501037494860A01F00EB4001444888
:102A100000EB01104068E0B1A21F02EB4203404A04
:102A200002EB0312117AA21F02EB42033C4A02EBB3
:102A30000312012350680622FEF794FEA01FC0EB8C
:102A400000103A3081B201232C4A7820FEF727FE8D
:102A500009E0A01FC0EB00103A3081B2012331A27F
:102A60007820FEF71CFE641C0F2CBDD319481D49AD
:102A700048601548D0F8D40278B1134A92F8D812B9
:102A80000123D2F8D4020622FEF76CFE01231B4A72
:102A9000C4217820FEF703FE05E0012321A2C42112
:102AA0007820FEF7FCFD10247BE0A4F11000012843
:102AB00001D9072803D3A4F11000082836D9054806
:102AC0000849486036E00000600200103F860100BF
:102AD0000F86010034346500F3520300948C01002A
:102AE000AC8C0100280000105D8901006B8801009A
:102AF000388A0100238A0100CC7F01006C4100105C
:102B0000798C010042494E004C4F57205B465D00D6
:102B1000484947485B465D00434F554E540000000E
:102B2000680300102D2D2D2D2D2D00004FF050107D
:102B3000FE494860A4F1100000EB4001FC4800EBA6
:102B40000110C06900B3A4F1100202EB4203F84A7D
:102B500002EB031292F82010A4F1100202EB4203E0
:102B6000F34A02EB03120123D0690622FEF7FAFDB5
:102B7000A4F11000C0EB00103A3081B20123ED4AFD
:102B8000FA20FEF78CFD0BE0A4F11000C0EB001062
:102B90003A3081B20123AFF27402FA20FEF77FFDD2
:102BA000641C192C81D3E448E0494860E348D0F81C
:102BB000D40278B1E14A92F8C0120123D2F8BC02E3
:102BC0000622FEF7CFFD0123DA4AC421FA20FEF7E0
:102BD00066FD06E00123AFF2B402C421FA20FEF73D
:102BE0005EFD012419E0022C05D9082C03D2D2483D
:102BF000CE49486003E04FF05010CC494860601E59
:102C000000EBC000CE4BC218C4EB04102B3081B2D5
:102C100000230820FEF743FD641C0A2CE3D3C648BA
:102C2000C24948600023C7A2C4211846FEF737FDF9
:102C30000023C5A2D4211846FEF731FD0023C4A20B
:102C4000D421F820FEF72BFD0020FEF76CFF10BD0D
:102C500008B5B948A02340F2DF12AF210090002050
:102C6000FEF7AFF808BD10B5FFF786FBFEF7E4FDF1
:102C7000FFF7EEFF10BD10B5FFF7F5FF6FF07F40D7
:102C8000AA490860B44848600023B44A04211846A1
:102C9000FEF7A2FC6FF07F40A44908604FF050108F
:102CA0004860A648D0F84C03012812D10023ACA2FA
:102CB0001A211846FEF790FC0023ABA230212820F1
:102CC000FEF78AFC0023ABA230218C20FEF784FCA7
:102CD00015E09A48D0F84C0388B90023A7A21A211E
:102CE0001846FEF779FC0023A6A230212820FEF723
:102CF00073FC0023A6A230218C20FEF76DFC00237C
:102D0000A5A23021F020FEF767FC0023A4A2302109
:102D10004FF4AA70FEF760FC0023A3A230214FF409
:102D2000DC70FEF759FC0020FEF7FDFE10BD08B573
:102D300081489A2340F2DF125A2100900020FEF7CA
:102D400040F808BD08B584481623A8220021009049
:102D50000846FEF736F8FEF76FFDFFF7E8FF08BDFF
:102D600010B5002439E0052C19DA032C01D0042C0D
:102D700003D171486D49486003E04FF050106B4932
:102D8000486004EB440000EBC4001A2202EB400050
:102D9000411C002385A24820FEF71EFC1BE0082CE6
:102DA00001D0092C03D164486049486003E04FF02A
:102DB00050105E494860601F00EB400202EBC0000B
:102DC0001A2202EB4000401C81B2002377A24FF48C
:102DD000A170FEF701FC601CC4B20A2CC3DB10BD5D
:102DE00010B5FFF7AFFF6FF07F40504908605A48B9
:102DF00048605248D0F84C03012807D10023574AB5
:102E0000163204211846FEF7E7FB09E04B48D0F8DC
:102E10004C0328B90023664A04211846FEF7DCFB60
:102E20006FF07F40414908604FF050104860002427
:102E30007AE04248D0F84C03012838D1052C1AD248
:102E4000022C05D9052C03D23B483849486003E0E1
:102E50004FF050103549486004EB8400554B03EBAC
:102E60004002162304FB03F01A3081B200231846F7
:102E7000FEF7B2FB57E0601F022805D9052803D2F0
:102E80002D482A49486003E04FF050102749486018
:102E900004EB8400474B03EB4002601F16235843AA
:102EA0001A3081B20023FA20FEF796FB3BE023485C
:102EB000D0F84C03B8BB052C1AD2022C05D9052C2E
:102EC00003D21D481949486003E04FF050101749DC
:102ED000486004EB8400384B03EB4002162304FBEC
:102EE00003F01A3081B200231846FEF775FB1AE092
:102EF000601F022805D9052803D20F480B494860F6
:102F000003E04FF050100949486004EB84002A4B5D
:102F100003EB4002601F162358431A3081B200238E
:102F2000FA20FEF759FB641C0A2C47E02800001029
:102F3000680300106C41001034346500600200101A
:102F4000DC7A0100326E64004155583A00000000FE
:102F50004F55543A00000000F352030073890100FA
:102F60004D657468203A0000467265715B487A5D71
:102F7000000000004C65766C5B565D00B7BDCABDB5
:102F8000203A0000C6B5C2CA5B487A5D0000000066
:102F9000B5E7C6BD5B565D0043705B465D00000053
:102FA000445B205D00000000434D50003A000000EB
:102FB00097880100D38601006F860100FFF439AFC6
:102FC000FFF7CEFE0020FEF7C2FF10BDF8B50546A4
:102FD0004FF05010FD494860FD48D0F8880300EBE1
:102FE000C000FC49421801231A214920FEF7F4FAD7
:102FF000F748D0F8900300EB400101EBC000F64920
:103000004218012330214920FEF7E6FAF048D0F8B3
:10301000940300EB400101EBC000F049421801238A
:1030200046214920FEF7D8FAE948D0F8C40300EB5E
:10303000400101EBC000EA49421800231A2140F286
:103040004310FEF7C9FAE248D0F8C80300EB40018C
:1030500001EBC000E34942180123302140F2431044
:10306000FEF7BAFA2878012800D100E000200646D1
:103070001EB1FF20D549486003E04FF05010D349FE
:103080004860D248406858234FF4C47244210090ED
:103090004FF4A170FDF795FECD48D0F8040100EB88
:1030A000400101EBC000D04942180123462140F203
:1030B0004310FEF791FAFEF7BFFB287801282FD1C5
:1030C0006FF07F40C1490860C8484860002424E090
:1030D0008CB904EB440101EBC401C34BCA1804EBE7
:1030E0008401542303EB0111143188B20023F12130
:1030F000FEF772FA10E004EB440101EBC401BA4B95
:10310000CA1804EB8401542303EB0111193188B26E
:103110000023F121FEF760FA641C022CD8D302E0F0
:103120000020FEF700FDF8BDF8B505464FF0501041
:10313000A64948602878012800D100E00020064612
:103140001EB1FF20A149486003E04FF050109F4995
:1031500048609E48406828234FF4E672182100908A
:1031600040F2A310FDF72DFE9948D0F8180300EBAC
:10317000400101EBC0009C494218012318214FF483
:10318000D270FEF729FAFEF757FB287801282FD1D5
:103190006FF07F408D49086094484860002424E027
:1031A0008CB904EB440101EBC4018F4BCA1804EB4A
:1031B0008401542303EB0111143188B20023F1215F
:1031C000FEF70AFA10E004EB440101EBC401864B60
:1031D000CA1804EB8401542303EB0111193188B29E
:1031E0000023F121FEF7F8F9641C022CD8D302E089
:1031F0000020FEF798FCF8BD70B50546012469E192
:10320000022C05DD072C03DA79487049486003E099
:103210004FF050106D494860601E6D4991F80D14D3
:1032200001EB810100EB410000EB8001714800EBF4
:1032300081008068401C40B9332000EB041100235A
:103240006DA2F620FEF72BFA27E0621E604B93F882
:103250000D3403EB830302EB430202EB8203654A66
:1032600002EB8302117B621E594B93F80D3403EB82
:10327000830302EB430202EB82035E4A02EB83020A
:10328000012390680522FEF76DFA332000EB04114C
:1032900000235B4AF620FEF702FA601E4C4991F8C3
:1032A0000D1401EB810100EB410000EB800155485A
:1032B00000EB81008068401C48B9332000EB04110A
:1032C00000234DA24FF4AD70FEF7E9F928E0621E2D
:1032D0003F4B93F80D3403EB830302EB430202EB05
:1032E0008203484A02EB8302117B621E384B93F83B
:1032F0000D3403EB830302EB430202EB8203414AEA
:1033000002EB8302012390680522FEF72BFA33209B
:1033100000EB041100233A4A4FF4AD70FEF7BFF9F9
:10332000601E2B4991F80D1401EB810100EB410166
:103330003548405CFF2809D1332000EB04110023FD
:1033400032A24FF4DF70FEF7AAF91DE0601E20499B
:1033500091F80D1401EB810100EB41012A48405C1A
:1033600048B1332000EB0411002329A24FF4DF7091
:10337000FEF795F908E0332000EB0411002325A2A5
:103380004FF4DF70FEF78BF9022C05DD072C03DA12
:1033900017480E49486003E04FF050100B49486051
:1033A000601E0B4991F80D1401EB810100EB410106
:1033B0001948405C1E2831DD332000EB0411002346
:1033C0000DA22620FEF76BF93FE000002800001058
:1033D00060020010857D0100CC7F0100E1810100C9
:1033E000128201009A820100D3820100380031006C
:1033F00034346500140800102D2D2D2D0000000020
:103400006C4100107C180010E42800102D00000012
:1034100050000000460000006E060010601EFE4BCB
:1034200093F80D3403EB830300EB4303FB48C05CCC
:1034300000EB400303EBC000F94BC218332000EB54
:10344000041100232620FEF72AF9601EF24991F8A4
:103450000D1401EB810100EB4101F048D230405CDA
:10346000022809DD332000EB04110023AFF27802BB
:103470009220FEF714F917E0601EE74B93F80D3425
:1034800003EB830300EB4303E448D230C05C00EB62
:10349000400303EBC000E34BC218332000EB0411E0
:1034A00000239220FEF7FBF8DB4991F80D1401EBA5
:1034B000810104EB4100012303220021FEF752F9B0
:1034C000332000EB04110023D74A0820FEF7E7F869
:1034D000601CC4B20B2CFFF693AE70BDF8B5054668
:1034E0002878022802D1FEF71EFC05E02878022881
:1034F00002DDA878FEF769FC2878012805D1A878B4
:1035000018B9FF20C949486003E04FF05010C7497F
:103510004860C64840682A235E221A21009036205F
:10352000FDF74FFCBC48D0F8400300EBC000C04999
:10353000421800231A213620FEF74EF82878022878
:1035400005D1A87818B9FF20B849486003E04FF0CA
:103550005010B6494860B548406842231E223221C7
:1035600000900020FDF72DFC0023B2A23221184666
:10357000FEF732F80324D0E12878A04206D1A878DB
:10358000022803D1FF20A949486003E04FF0501002
:10359000A6494860A54840680090A01E332202EB6F
:1035A0000010103083B2A01E02EB001081B24FF465
:1035B0009972FA20FDF705FCE01EE97801EB810124
:1035C00000EB410000EB80019B4800EB810080682C
:1035D000401C58B9A01E332202EB001081B2002318
:1035E000AFF2EC12FA20FEF75AF825E0E21EEB7873
:1035F00003EB830302EB430202EB82038E4A02EBEE
:103600008302117BE21EEB7803EB830302EB4302A0
:1036100002EB8203884A02EB8302012390680522B1
:10362000FEF7A0F8A01E332202EB001081B20023A7
:103630007D4AFA20FEF733F82878A04206D1A87810
:10364000032803D1FF207949486003E04FF0501070
:1036500076494860754840680090A01E332202EB0E
:103660000010103083B2A01E02EB001081B24FF4A4
:10367000C1724FF4A570FDF7A4FBE01EE97801EBE1
:10368000810100EB410000EB80016C4800EB810000
:103690008068401C60B9A01E332202EB001081B28A
:1036A0000023AFF2AC224FF4A570FDF7F8FF26E03F
:1036B000E21EEB7803EB830302EB430202EB82038F
:1036C0005E4A02EB8302117BE21EEB7803EB83037D
:1036D00002EB430202EB8203584A02EB830201230E
:1036E00090680522FEF73EF8A01E332202EB001080
:1036F00081B200234C4A4FF4A570FDF7D0FF287823
:10370000A04206D1A878042803D1FF204749486089
:1037100003E04FF05010454948604448406800902D
:10372000A01E332202EB0010103083B2A01E02EB69
:10373000001081B240F2DF124FF4D270FDF741FB6E
:10374000E01EE97801EB810100EB41013C48405C5F
:10375000FF280CD1A01E332202EB001081B20023FF
:10376000AFF26C324FF4D270FDF799FF0BE0A01E60
:10377000332202EB001081B20023AFF26C324FF41F
:10378000D270FDF78CFF2878A04205D1A87818B92F
:10379000FF202649486003E04FF05010234948605D
:1037A000224840680090A01E332202EB0010103027
:1037B00083B2A01E02EB001081B27E222820FDF70A
:1037C00000FBE01EE97801EB810100EB41011348A9
:1037D000405C30280BDDA01E332202EB001081B2CA
:1037E0000023AFF2EC322820FDF759FF2DE0E01E58
:1037F000EB7803EB830300EB43030848C05C00EB6A
:10380000400303EBC000064BC218A01E332303EB9A
:10381000001081B2002315E0600200106E06001057
:10382000CC7F0100E18101006C41001028000010F4
:10383000857D01004E6F2E00140800107C180010CA
:10384000E42800102820FDF72AFF2878A04206D19E
:10385000A878012803D1FF20FB49486003E04FF01E
:103860005010F9494860F84840680090A01E332283
:1038700002EB0010103083B2A01E02EB001081B2E8
:10388000C4227E20FDF79DFAE01EE97801EB81015C
:1038900000EB4101ED48405C02280BDDA01E332205
:1038A00002EB001081B20023AFF2B4427E20FDF79C
:1038B000F6FE16E0E01EEB7803EB830300EB430318
:1038C000E248C05C00EB400303EBC000E04BC218D1
:1038D000A01E332303EB001081B200237E20FDF7EE
:1038E000DEFE4FF05010D84948604860E97801EB9F
:1038F000810104EB4101881E012303220021FDF711
:1039000031FFA01E332202EB001081B20023D14A06
:103910000820FDF7C4FE601CC4B20D2CFFF62CAECF
:10392000F8BDF8B505464FF05010C74948602878F3
:10393000012800D100E0002006461EB1FF20C24948
:10394000486003E04FF05010BF494860BE484068EF
:103950002A2358221A2100903020FDF732FABE485F
:1039600090F80C0400EB8000BC49421801231A2196
:103970003020FDF731FE2878022801D1012000E037
:10398000002006461EB1FF20AF49486003E04FF01B
:103990005010AD494860AC48406840231E22302199
:1039A00000900820FDF70DFA0123AFF278123021C4
:1039B0000820FDF711FEFDF73FFF2878012819D1F7
:1039C0006FF07F40A0490860A548486000240EE0E1
:1039D00004EB8401A14BCA1804EB8401542303EBCC
:1039E000011188B20023F121FDF7F6FD641C022CC1
:1039F000EED320E0287802281AD16FF07F40924958
:103A000008609748486000240FE0C4EBC401954B60
:103A1000CA18E11C01EB8101542303EB011188B2A8
:103A20000023F121FDF7D8FD641C022CEDD302E048
:103A30006878FEF778F8F8BDF8B505468648D0F8FE
:103A4000D00301280FD14FF050107F494860012367
:103A5000854AD2211E20FDF7BFFD0123824AD221D3
:103A60009620FDF7B9FD2878012800D100E000205C
:103A700006461EB1FF207449486003E04FF0501025
:103A800071494860704840682C23C022182100907A
:103A90005720FDF796F97048D0F8880300EBC00076
:103AA0007249421801231A215820FDF795FD287804
:103AB000022801D1012000E0002006461EB1FF20AF
:103AC0006149486003E04FF050105F4948605E482C
:103AD00040684223C0222E2100905720FDF771F943
:103AE0005D48D0F8900300EB400101EBC000604955
:103AF0004218012330215820FDF76EFD2878032855
:103B000001D1012000E0002006461EB1FF204E49F1
:103B1000486003E04FF050104B4948604A48406805
:103B20005823C022442100905720FDF74AF94A4803
:103B3000D0F8940300EB400101EBC0004449421867
:103B4000012346215820FDF747FD2878042801D19C
:103B5000012000E0002006461EB1FF203A494860DF
:103B600003E04FF0501038494860374840682C2334
:103B70004FF4DD721821009040F25110FDF721F949
:103B80003548D0F8C40300EB400101EBC0003949CF
:103B9000421800231A214FF4A970FDF71DFD287863
:103BA000052801D1012000E0002006461EB1FF20BB
:103BB0002549486003E04FF05010234948602248EF
:103BC000406842234FF4DD722E21009040F25110E4
:103BD000FDF7F7F82048D0F8C80300EB400101EBEF
:103BE000C00025494218012330214FF4A970FDF788
:103BF000F3FCFDF721FE287806286ED2DFE800F0FE
:103C00000306F4F3F2F1FDF756FFE1E168780028CE
:103C10007AD16FF07F400C49086011484860A8785D
:103C200070BB00240DE0154901EBC40204EB8401D4
:103C3000542303EB011188B20023F121FDF7CCFCE2
:103C4000641C052CEFD325E128000010400700106C
:103C5000E18101006C41001060020010E982010066
:103C600038003100F3820100DE820100857D010011
:103C7000CC7F0100128201009A820100457C010084
:103C8000FFE7A878012812D100240DE0FA4901EBE2
:103C9000C40204EB8401542303EB011188B2002316
:103CA000F121FDF799FC641C052CEFD3F2E0A87814
:103CB000022813D100240DE0F04901EBC40204EB0B
:103CC0008401542303EB011188B20023F121FDF795
:103CD00083FC641C052CEFD3DCE078E1A878032892
:103CE00013D100240DE0E64901EBC40204EB84018A
:103CF000542303EB011188B20023F121FDF76CFC82
:103D0000641C052CEFD3C5E021E000240EE0DD4962
:103D100001EBC40204EB8401542303EB01110F31C6
:103D200088B20023F121FDF757FC641C042CEED36C
:103D30000023D54AF22140F29310FDF74DFC0023F9
:103D4000D2A2F22140F2BD10FDF746FCA2E0687855
:103D500001287DD16FF07F40CD490860CD48486093
:103D6000A87890B900240DE0CB4901EBC40204EB24
:103D70008401542303EB011188B20023F121FDF7E4
:103D80002BFC641C052CEFD384E0A878012812D109
:103D900000240DE0C14901EBC40204EB840154236B
:103DA00003EB011188B20023F121FDF715FC641C1F
:103DB000052CEFD36EE0A878022816D100240DE080
:103DC000B74901EBC40204EB8401542303EB011156
:103DD00088B20023F121FDF7FFFB641C052CEFD313
:103DE00058E0C9E09DE082E055E0A878032812D1B0
:103DF00000240DE0AA4901EBC40204EB8401542322
:103E000003EB011188B20023F121FDF7E5FB641CEF
:103E1000052CEFD33EE000240EE0A24901EBC402E2
:103E200004EB8401542303EB0111143188B2002305
:103E3000F121FDF7D1FB641C042CEED30023924A40
:103E4000F22140F29310FDF7C7FB00238E4A00E0F9
:103E500006E02832F22140F2BD10FDF7BDFB19E06B
:103E60006FF07F408A4908608A48486000238E4A84
:103E7000F1215420FDF7B0FB0023834AF22140F2E8
:103E80009310FDF7A9FB002388A2F22140F2BD1098
:103E9000FDF7A2FB9CE06FF07F407D4908607D4804
:103EA0004860002420E0012C01D0022C0ED1804972
:103EB00001EBC40204EB8401542303EB0111491DFF
:103EC00088B20023F121FDF787FB0CE0784901EB74
:103ED000C40204EB8401542303EB011188B20023D4
:103EE000F121FDF779FB641C042CDCD370E06FF04A
:103EF0007F40674908606748486000240EE06D49CC
:103F000001EBC40204EB8401542303EB0111091DEE
:103F100088B20023F121FDF75FFB641C022CEED375
:103F200056E06FF07F405A4908605A4848600024C4
:103F30001FE0022C0ED2604901EBC40204EB8401A5
:103F4000542303EB0111103188B20023F121FDF756
:103F500043FB0DE0584901EBC40204EB84015423F8
:103F600003EB0111091D88B20023F121FDF734FB99
:103F7000641C042CDDD32BE06FF07F4044490860C3
:103F80004448486000241FE0012C0ED14B4901EB4E
:103F9000C40204EB8401542303EB0111143188B2F1
:103FA0000023F121FDF718FB0DE0444901EBC402A9
:103FB00004EB8401542303EB0111103188B2002378
:103FC000F121FDF709FB641C032CDDD300E000BFE9
:103FD00000BFF8BDF8B505462878012800D100E0FB
:103FE000002006461EB1FF202949486003E04FF03B
:103FF000501027494860264840682C23C0221821C9
:1040000000905720FCF7DDFE2D48D0F8880300EB28
:10401000C0002C49421801231A215820FDF7DCFA70
:104020002878022801D1012000E0002006461EB1B8
:10403000FF201749486003E04FF0501014494860D2
:10404000134840684223C0222E2100905720FCF7DD
:10405000B8FE1B48D0F8900300EB400101EBC00014
:1040600019494218012330215820FDF7B5FA287864
:1040700003282BD101202AE06D7C0100957C0100F2
:10408000E57C0100CD7B0100A81C0000312F32002F
:1040900028000010380031000D7D0100357D010041
:1040A0005D7D0100F57B01001D7C0100332F330095
:1040B000B9810100028201005F820100BB82010020
:1040C00060020010857D0100CC7F010000200646C3
:1040D0001EB1FF20FD49486003E04FF05010FB493E
:1040E0004860FA4840685823C02244210090572075
:1040F000FCF767FEF648D0F8940300EB400101EBB3
:10410000C000F4494218012346215820FDF764FA03
:104110002878042801D1012000E0002006461EB1C5
:10412000FF20EA49486002E0EB48E8494860E74878
:1041300040686E23C0225A2100905720FCF741FEB0
:10414000E348D0F8980300EB400101EBC000E349DD
:10415000421801235C215820FDF73EFA28780528F3
:1041600001D1012000E0002006461EB1FF20D74902
:10417000486002E0D848D5494860D4484068842364
:10418000C022702100905720FCF71BFED048D0F8C9
:104190009C0300EB400101EBC000D1494218002311
:1041A00072215820FDF718FA2878062801D101203D
:1041B00000E0002006461EB1FF20C449486003E02D
:1041C0004FF05010C1494860C04840682C234FF45C
:1041D000DD721821009040F25110FCF7F2FDBC484E
:1041E000D0F84C0301280DD1B948D0F80404C0EB35
:1041F000C000BC49421800231A214FF4A970FDF7F2
:10420000EBF910E0B248D0F84C0360B9B048D0F8F0
:104210000404C0EBC000B449421800231A214FF433
:10422000A970FDF7D9F92878072801D1012000E00D
:10423000002006461EB1FF20A449486003E04FF06D
:104240005010A2494860A148406842234FF4DD72F3
:104250002E21009040F25110FCF7B3FD9C48D0F89D
:10426000C40300EB400101EBC000A0494218002349
:1042700030214FF4A970FDF7AFF92878082801D153
:10428000012000E0002006461EB1FF208F49486053
:1042900003E04FF050108D4948608C484068582327
:1042A0004FF4DD724421009040F25110FCF789FD7B
:1042B0008748D0F8C80300EB400101EBC0008C49EF
:1042C0004218012346214FF4A970FDF785F928789B
:1042D000092801D1012000E0002006461EB1FF2080
:1042E0007A49486002E07C487849486077484068ED
:1042F0006E234FF4DD725A21009040F25110FCF70A
:1043000060FD7348D0F8D00300EB400101EBC00022
:104310007849421801235C214FF4A970FDF75CF93C
:1043200028780A2801D1012000E0002006461EB1AD
:10433000FF206649486002E0674864494860634876
:10434000406884234FF4DD727021009040F25110D8
:10435000FCF737FD5E48D0F80804C0EBC0006649A2
:104360004218002372214FF4A970FDF735F9FDF7CB
:1043700063FA28780B287DD2DFE800F0060A618E08
:10438000CCEFEDECEBEAE9006878FDF7E0FD08E240
:10439000687840BB6FF07F404C49086057484860E0
:1043A00000240EE0564901EBC40204EB84015423BF
:1043B00003EB01110E3188B20023F121FDF70CF956
:1043C000641C042CEED300234E4AF22140F29310D9
:1043D000FDF702F90023AFF24C32F22140F2BD109A
:1043E000FDF7FAF82AE06878012827D16FF07F40BE
:1043F000364908604148486000240EE0424901EB1C
:10440000C40204EB8401542303EB01110E3188B282
:104410000023F121FDF7E0F8641C042CEED3002307
:10442000384AF22140F29310FDF7D6F80023354ABE
:104430002832F22140F2BD10FDF7CEF8B1E16FF065
:104440007F40224908602D484860002421E0012C6B
:1044500001D0022C0FD12D4901EBC40204EB8401E1
:10446000542303EB0111091D88B20023F121FDF74C
:10447000B3F80DE094E1254901EBC40204EB84019B
:10448000542303EB011188B20023F121FDF7A4F8B6
:10449000641C042CDBD384E16FF07F400B4908607F
:1044A0001648486000240EE0194901EBC40204EBF1
:1044B0008401542303EB0111091D88B20023F1216B
:1044C000FDF78AF8641C022CEED36AE12800001084
:1044D00060020010E1810100343465008583010031
:1044E000F78301008F810100A48101001282010085
:1044F0009A820100AF8401000B8C0100380031006A
:10450000CD7B0100A81C0000F57B0100B9810100F2
:10451000028201006FF07F40FE490860FE4848605B
:10452000002411E004EB440101EBC401FB4BCA1869
:1045300004EB8401542303EB0111143188B20023EE
:10454000F121FDF749F8641C042CEBD329E10DE1BE
:10455000E2E0B6E08AE030E0FFE76FF07F40ED494F
:104560000860ED484860002424E08CB904EB440165
:1045700001EBC401EA4BCA1804EB8401542303EB9A
:1045800001110E3188B20023F121FDF725F810E06A
:1045900004EB440101EBC401E14BCA1804EB8401B4
:1045A000542303EB0111133188B20023F121FDF7ED
:1045B00013F8641C022CD8D3F3E06FF07F40D54988
:1045C0000860D5484860D748D0F84C03012826D168
:1045D000002421E0022C0FD1C4EBC401D24BCA1835
:1045E00004EB8401542303EB01110A3188B2002348
:1045F000F121FCF7F1FF0EE0C4EBC401CA4BCA186D
:1046000004EB8401542303EB0111123188B200231F
:10461000F121FCF7E1FF641C032CDBD325E000242F
:1046200021E0022C0FD1C4EBC401C04BCA1804EB2B
:104630008401542303EB01110A3188B20023F121D4
:10464000FCF7CAFF0EE0C4EBC401B84BCA1804EB78
:104650008401542303EB0111123188B20023F121AC
:10466000FCF7BAFF641C032CDBD39AE06FF07F40A9
:10467000A8490860A848486000241FE0022C0ED218
:10468000AB4901EBC40204EB8401542303EB011199
:10469000103188B20023F121FCF79EFF0DE0A44900
:1046A00001EBC40204EB8401542303EB0111091D47
:1046B00088B20023F121FCF78FFF641C042CDDD3AA
:1046C0006FE06FF07F409349086093484860002492
:1046D0001FE0012C0ED1974901EBC40204EB8401C9
:1046E000542303EB0111143188B20023F121FCF7AC
:1046F00073FF0DE08F4901EBC40204EB84015423E6
:1047000003EB0111103188B20023F121FCF764FFA3
:10471000641C032CDDD344E06FF07F407D490860CA
:104720007D48486000241EE074B9834901EBC4024F
:1047300004EB8401542303EB0111193188B20023E7
:10474000F121FCF749FF0DE07B4901EBC40204EBCA
:104750008401542303EB0111143188B20023F121A9
:10476000FCF73AFF641C022CDED31AE06FF07F40A6
:10477000684908606848486000240EE06F4901EB12
:10478000C40204EB8401542303EB0111091D88B218
:104790000023F121FCF720FF641C022CEED300E083
:1047A00000BF00BFF8BD2DE9F04104460D46164696
:1047B00004EB4403624FDA19B1B2A8B20123FCF74B
:1047C0006EFFBDE8F081F8B505464FF05010514935
:1047D00048605448D0F8FC0078B952493F22D1F8DB
:1047E00088034FF4B971FFF7DEFF4E493F22D1F83D
:1047F0008803C821FFF7D7FF0CE0002351A23F2117
:104800004FF4B970FCF74BFF00234EA23F21C820A4
:10481000FCF745FF2878012800D100E0002006467B
:104820001EB1FF203B49486003E04FF0501039496A
:104830004860384840682A23992218210090452072
:10484000FCF7BFFA3748D0F8880300EBC0003E49B8
:104850004218012318214620FCF7BEFE28780228C2
:1048600001D1012000E0002006461EB1FF202949A9
:10487000486003E04FF0501026494860294A92F8FA
:10488000EC100023D2F8E8000522FCF76BFF21486A
:1048900040682A2340F2451218210090E220FCF7DC
:1048A00090FA0123294A1821E520FCF795FE1D48BE
:1048B000D0F8F00000EB40002549421801231821F0
:1048C00040F22910FCF788FE16491822D1F8880317
:1048D00040F23311FDF785FF2878032801D101202C
:1048E00000E0002006461EB1FF200A49486003E0B0
:1048F0004FF0501007494860064840682A2340F2AC
:10490000DD121821009040F28F10FCF75AFA05488A
:1049100020E00000280000103800310085830100ED
:10492000F7830100600200108F810100A481010063
:104930005F820100BB8201004F8301008A82010077
:10494000AC8C010025000000857D01006C41001049
:10495000798C0100D0F8FC00FE4901EB80020123B4
:1049600018214FF4C870FCF737FE2878042801D1CD
:10497000012000E0002006461EB1FF20F6494860F5
:1049800003E04FF05010F4494860F34840683E237C
:1049900099222C2100904520FCF713FAEF48D0F81B
:1049A000E00000EB8000EE49421800232C21462055
:1049B000FCF712FE2878052801D1012000E0002034
:1049C00006461EB1FF20E449486003E04FF0501056
:1049D000E1494860E04840683E234FF49C722C2136
:1049E0000090E420FCF7EDF9DC48D0F8040100EB7E
:1049F0008000DB49421801232C21E520FCF7ECFD67
:104A000006246DE02878A04203D1FF20D2494860F7
:104A10000CE0A01F022805D9072803D2D148CE49AF
:104A2000486003E04FF05010CB494860CA484068E6
:104A30000090A01FC0EB00105C3083B2A01FC0EB41
:104A400000104C3081B2E6229420FCF7BAF9A01F86
:104A500000EB4001C44800EB01104068A0B3A21F66
:104A600002EB4203C04A02EB0312117AA21F02EBCF
:104A70004203BD4A02EB0312002350680522FCF7F3
:104A800071FEA01FC0EB00104C3081B20123B74A69
:104A9000A020FCF704FEB148D0F8FC00F8B9A01F34
:104AA00000EB4003B04800EB0310C06800EB40008F
:104AB000AF4BC218A01FC0EB00104C3081B20123D5
:104AC000D020FCF7ECFD0AE0FFE7A01FC0EB0010D0
:104AD0004C3081B20123A74AA020FCF7E0FD641C02
:104AE0000F2C8FD310247DE02878A04203D1FF2023
:104AF000994948600DE0A4F11000022805D9072863
:104B000003D298489449486003E04FF0501092490E
:104B10004860914840680090A4F11000C0EB00107C
:104B20005C3083B2A4F11000C0EB00104C3081B2B5
:104B30004FF4C3724FF49A70FCF743F9A4F11000DC
:104B400000EB4001884800EB0110C069E0B3A4F11C
:104B5000100202EB4203844A02EB031292F8201087
:104B6000A4F1100202EB42037F4A02EB031200237E
:104B7000D0690522FCF7F6FDA4F11000C0EB00108F
:104B80004C3081B20023794A4FF4A570FCF787FDC1
:104B90007248D0F8FC0020BBA4F1100000EB4003E9
:104BA000714800EB0310406A00EB4000704BC218E4
:104BB000A4F11000C0EB00104C3081B201234FF47F
:104BC000BD70FCF76CFD0CE0FFE7A4F11000C0EB3A
:104BD00000104C3081B20123664A4FF4A570FCF7F7
:104BE0005EFD641C192CFFF47FAF28780F2803D1D9
:104BF000FF205949486003E04FF050105649486083
:104C000055484068E323E622D32100909420FCF726
:104C1000D8F8524A92F8C0120023D2F8BC020522FA
:104C2000FCF7A0FD0123514AD321A020FCF737FD5A
:104C30004A48D0F8C40200EB40004D494218012315
:104C4000D321D020FCF72BFD2878192803D1FF2091
:104C50004149486003E04FF050103F4948603E48EA
:104C60004068E3234FF4C372D32100904FF49A704D
:104C7000FCF7A7F8394A92F8D8120023D2F8D402E8
:104C80000522FCF76FFD0023384AD3214FF4A570AD
:104C9000FCF705FD3148D0F8DC0200EB4000344958
:104CA00042180123D3214FF4BD70FCF7F8FCFCF748
:104CB000C3FD2878062874D2DFE800F0030708094E
:104CC00033746878FDF743F9C3E0C2E0C1E06FF0E8
:104CD0007F40214908602848486000241EE074B9DC
:104CE0001C4901EB840204EB8401542303EB011102
:104CF000143188B20023F121FCF76EFC0DE0154958
:104D000001EB840204EB8401542303EB01111E31F7
:104D100088B20023F121FCF75FFC641C022CDED377
:104D200097E06FF07F400C4908601348486000240A
:104D300034E01CBB04EB8401094BCA1804EB84016A
:104D4000542303EB0111143188B20023F121FCF745
:104D500043FC22E0F18A01002800001060020010EC
:104D60004083010034346500680300106C4100107A
:104D7000798C0100242B00003800310004EB840101
:104D8000F94BCA1804EB8401542303EB01111931C8
:104D900088B20023F121FCF71FFC641C022CC8D34D
:104DA00057E02BE06FF07F40F0490860F048486022
:104DB000002420E07CB904EB8401EB4BCA1804EB1F
:104DC0008401542303EB0111143188B20023F12133
:104DD000FCF702FC0EE004EB8401E34BCA1804EB81
:104DE0008401542303EB0111193188B20023F1210E
:104DF000FCF7F2FB641C022CDCD32AE06FF07F404E
:104E0000DA490860DA484860DA48D0F84C030128EB
:104E10000DD10023D8A2F1215D20FCF7DDFB00239A
:104E2000D7A2F2214FF4CA70FCF7D6FB10E0D148AC
:104E3000D0F84C0360B90023D3A2F1215D20FCF728
:104E4000CBFB0023D2A2F2214FF4CA70FCF7C4FBC3
:104E500000BF00BFF8BDF8B505462878012800D18D
:104E600000E0002006461EB1FF20C049486003E074
:104E70004FF05010BD494860BC4840682C23C02208
:104E8000182100905820FBF79CFFBA48006800EBFF
:104E90008000B549421801231A215820FCF79CFBD9
:104EA0002878022801D1012000E0002006461EB12A
:104EB000FF20AE49486003E04FF05010AB49486016
:104EC000AA4840684223C0222E2100905820FBF7B8
:104ED00078FFA848406800EB8000A34942180123EE
:104EE00030215820FCF778FBFCF7A6FC2878152821
:104EF00078D2DFE800F00B0F95BFD8EFEEEDECEBCA
:104F0000EAE9E8E7E6E5E4E3E2E1E0006878FDF7F6
:104F10001EF877E2687848BB6FF07F4093490860DD
:104F20009348486000241EE074B99C4901EBC40218
:104F300004EB8401542303EB0111133188B20023E5
:104F4000F121FCF749FB0DE0944901EBC40204EBAD
:104F50008401542303EB0111183188B20023F1219D
:104F6000FCF73AFB641C022CDED358E06878012879
:104F700039D16FF07F407D4908607D48486000244A
:104F80001FE0032C0ED1864901EBC40204EB84011F
:104F9000542303EB0111133188B20023F121FCF7F4
:104FA0001BFB0DE07E4901EBC40204EB840154239A
:104FB00003EB01110E3188B20023F121FCF70CFB49
:104FC000641C042CDDD30023764AF22140F29310B6
:104FD000FCF702FB002374A2F22140F2BD10FCF7A3
:104FE000FBFA1CE00DE26FF07F406049086060480A
:104FF000486000236D4A4FF482715420FCF7ECFAAC
:105000000023684AF22140F29310FCF7E5FA0023EE
:10501000AFF66872F22140F2BD10FCF7DDFAF1E163
:105020006FF07F40514908605148486000241EE0FD
:1050300074B95F4901EBC40204EB8401542303EB10
:105040000111133188B20023F121FCF7C5FA0DE0FC
:10505000574901EBC40204EB8401542303EB011113
:10506000183188B20023F121FCF7B6FA641C022C37
:10507000DED3C7E16FF07F403C4908603C484860A0
:1050800000240DE04B4901EBC40204EB84015423DE
:1050900003EB011188B20023F121FCF79DFA641C97
:1050A000022CEFD3AEE16FF07F403049086030480A
:1050B0004860002420E0A3E1A1E19FE182E168E1F2
:1050C0004BE131E117E1FAE0E0E0C6E0ACE092E06C
:1050D00078E02DE013E004EB440101EBC401364B12
:1050E000CA1804EB8401542303EB011188B2002396
:1050F000F121FCF771FA641C042CECD382E16FF00F
:105100007F401A4908601A48486000240DE02B4986
:1051100001EBC40204EB8401542303EB011188B2B8
:105120000023F121FCF758FA641C022CEFD369E14B
:105130006FF07F400D4908600D484860002410E082
:1051400004EB440101EBC4011D4BCA1804EB8401BC
:10515000542303EB011188B20023F121FCF73CFA40
:10516000641C022CECD34DE14083010028000010A8
:10517000380031006002001043656C2052000000CE
:1051800043656C4C69737400C7E5B3FDD0D0000073
:10519000C7E5B3FDB1EDB8F100000000678A01007A
:1051A000F57B0100A81C0000322F33001D7C01009C
:1051B000978A010002820100858301004F8301006C
:1051C000F78301006FF07F40FE490860FE484860A9
:1051D00000240DE0FD4901EBC40204EB84015423DB
:1051E00003EB011188B20023F121FCF7F5F9641CEF
:1051F000022CEFD306E16FF07F40F2490860F248DD
:10520000486000240DE0F14901EBC40204EB840185
:10521000542303EB011188B20023F121FCF7DCF9E0
:10522000641C022CEFD3EDE06FF07F40E54908608D
:10523000E548486000240DE0E54901EBC40204EBB9
:105240008401542303EB011188B20023F121FCF700
:10525000C3F9641C032CEFD3D4E06FF07F40D9492D
:105260000860D948486000240DE0DA4901EBC40227
:1052700004EB8401542303EB011188B20023F121D4
:10528000FCF7AAF9641C042CEFD3BBE06FF07F405D
:10529000CC490860CC48486000240DE0CE4901EBC1
:1052A000C40204EB8401542303EB011188B20023F0
:1052B000F121FCF791F9641C032CEFD3A2E06FF00D
:1052C0007F40C0490860C0484860002410E004EBFB
:1052D000440101EBC401C14BCA1804EB84015423FF
:1052E00003EB011188B20023F121FCF775F9641C6E
:1052F000022CECD386E06FF07F40B2490860B248E0
:10530000486000240DE0B14901EBC40204EB8401C4
:10531000542303EB011188B20023F121FCF75CF95F
:10532000641C022CEFD36DE06FF07F40A54908604C
:10533000A548486000240DE0A94901EBC40204EB34
:105340008401542303EB011188B20023F121FCF7FF
:1053500043F9641C022CEFD354E06FF07F4099496D
:10536000086099484860002410E004EB440101EB18
:10537000C4019C4BCA1804EB8401542303EB0111B4
:1053800088B20023F121FCF727F9641C022CECD32E
:1053900038E06FF07F408B4908608B4848600024FC
:1053A0000DE08C4901EBC40204EB8401542303EBB0
:1053B000011188B20023F121FCF70EF9641C042CC2
:1053C000EFD31FE06FF07F407E4908607E48486061
:1053D000002410E004EB440101EBC401814BCA1826
:1053E00004EB8401542303EB011188B20023F12163
:1053F000FCF7F2F8641C042CECD303E002E001E0BB
:1054000000E000BF00BFF8BDF8B5054628780128C8
:1054100000D100E0002006461EB1FF206949486027
:1054200003E04FF0501067494860664840682C23FD
:10543000C0221A2100905E20FBF7C3FC6A48D0F816
:105440004C03012806D1002368A21C215F20FCF731
:10545000C3F809E06448D0F84C0328B9002365A2DA
:105460001C215F20FCF7B8F82878022801D1012020
:1054700000E0002006461EB1FF205249486003E0CC
:105480004FF050104F4948604E4840684223C022B8
:10549000302100905E20FBF794FC584890F87D0284
:1054A00000EB800056494218012332215F20FCF7AF
:1054B00093F82878032801D1012000E00020064657
:1054C0001EB1FF203F49486003E04FF050103D49B6
:1054D00048603C4840685823C022462100905E2026
:1054E000FBF76FFC454890F87E0200EB80004449D2
:1054F0004218012348215F20FCF76EF82878042821
:1055000001D1012000E0002006461EB1FF202D49F8
:10551000486003E04FF050102A494860294840682D
:105520006E23C0225C2100905E20FBF74AFC2E48CF
:10553000D0F84C03334901EBC00200235E215F2009
:10554000FCF74AF82878052801D1012000E0002066
:1055500006461EB1FF201B49486003E04FF0501083
:1055600018494860174840688423C022722100907F
:105570005E20FBF726FC002323A274215F20FCF7AA
:105580002BF82878062801D1012000E000200646EB
:105590001EB1FF200B49486003E04FF0501009494D
:1055A0004860084840689A237322882100905E2052
:1055B000FBF707FC164901230222C8690021FCF70A
:1055C000D1F827E028000010380031008A8201005D
:1055D0004E8401005F820100BB820100D382010082
:1055E0004F830100D584010060020010427269649B
:1055F00000000000B5E7C7C5000000006C3D0010CA
:1056000040830100FB8B0100484F4C440000000028
:10561000784100100023F84A8A215F20FBF7DCFF65
:105620004FF05010F54948600023F5A28A217320FD
:10563000FBF7D2FF2878072801D1012000E00020E5
:1056400006461EB1FF20ED49486003E04FF05010C0
:10565000EA494860E94840689A23912288210090ED
:105660007C20FBF7AEFBE749012302228869002179
:10567000FCF778F80023E04A8A217D20FBF7ACFF95
:105680004FF05010DD4948600023DDA28A219120AF
:10569000FBF7A2FF2878082801D1012000E00020B4
:1056A00006461EB1FF20D549486003E04FF0501078
:1056B000D2494860D14840689A23B122882100909D
:1056C0009C20FBF77EFBCF4901230222C868002102
:1056D000FCF748F80020C849887000230A468A2150
:1056E0009D20FBF779FF4FF05010C449486000231C
:1056F000C5A2A0211846FBF76FFF0023C54AA021D1
:105700005E20FBF769FF2878092801D1012000E01D
:10571000002006461EB1FF20B849486003E04FF064
:105720005010B6494860B54840682C234FF4DD72EC
:105730001A2100904FF4AC70FBF743FB0023B64AEC
:105740001C2140F25910FBF747FF28780A2801D1A5
:10575000012000E0002006461EB1FF20A749486056
:1057600003E04FF05010A5494860A4484068422328
:105770004FF4DD72302100904FF4AC70FBF721FB49
:105780000123A64A322140F25910FBF725FF287861
:105790000B2801D1012000E0002006461EB1FF20A9
:1057A0009649486003E04FF0501094494860934890
:1057B000406858234FF4DD72462100904FF4AC70DE
:1057C000FBF7FFFA0123964A482140F25910FBF7F4
:1057D00003FF28780C2801D1012000E000200646B4
:1057E0001EB1FF208549486003E04FF05010834907
:1057F0004860824840686E234FF4DD725C2100905F
:105800004FF4AC70FBF7DDFA864887A1D0F880230F
:1058100079480DF099F8012384A25E2140F25910D5
:10582000FBF7DAFE28780D2801D1012000E00020E6
:1058300006461EB1FF207149486003E04FF050104A
:105840006E4948606D48406884234FF4DD727221D0
:1058500000904FF4AC70FBF7B4FA0123754A742141
:1058600040F25910FBF7B8FE28780E2801D101202C
:1058700000E0002006461EB1FF206049486003E0BA
:105880004FF050105D4948605C4840689A2340F2F0
:105890006D12882100904FF4AC70FBF792FA5949D1
:1058A0000123022288680021FBF75CFF0023524A93
:1058B0008A2140F25910FBF78FFE4FF050104F49EC
:1058C0004860002352A28A2140F26D10FBF784FE4B
:1058D00028780F2801D1012000E0002006461EB1E3
:1058E000FF204649486003E04FF0501043494860AC
:1058F000424840689A2340F28B12882100904FF46E
:10590000BB70FBF75EFA3F49012302224868002181
:10591000FBF728FF0023384A8A2140F27710FBF773
:105920005BFE4FF0501035494860002338A28A21B1
:1059300040F28B10FBF750FE2878102801D101208F
:1059400000E0002006461EB1FF202C49486003E01D
:105950004FF0501029494860284840689A2340F287
:10596000AB12882100904FF4CB70FBF72AFA25493F
:105970000123022208680021FBF7F4FE00201E49E3
:10598000887000230A468A2140F29710FBF724FE14
:10599000FBF752FF287816287AD2DFE800F00B0ECA
:1059A0004F7AA4C7D5FCFAF9F8F7F6F5F4F3F279D3
:1059B00079F1F0EFFCF77BFC50E26FF07F400F498C
:1059C00008601D4848601748D0F84C03012807D1EB
:1059D0000023AFF2E832F1216620FBF7FDFD0AE07B
:1059E0001048D0F84C0330B90023AFF2F832F1215F
:1059F0006620FBF7F1FD31E26C4100102800001039
:105A00002D0000007841001046616374204E6F2E17
:105A10003A000000EB3F00103C8C01000F830100B6
:105A20003983010060020010253264004E4F4E455C
:105A3000000000004A830100380031006FF07F4011
:105A4000FC490860FC48486000241EE05CB904EB97
:105A5000440000EBC400F94942180023F1216720FB
:105A6000FBF7BAFD10E004EB440101EBC401F34B7A
:105A7000CA1804EB8401542303EB0111183188B2D6
:105A80000023F121FBF7A8FD641C022CDED3E5E125
:105A9000E3E16FF07F40E7490860E7484860002491
:105AA0001EE05CB904EB440000EBC400E34942187B
:105AB0000023F1216720FBF78FFD10E004EB440188
:105AC00001EBC401DD4BCA1804EB8401542303EB42
:105AD0000111183188B20023F121FBF77DFD641C10
