:020000040000FA
:1000000038480010E1010000E9010000EB010000A8
:10001000ED010000EF010000F10100000000000010
:10002000000000000000000000000000F3010000DC
:10003000F501000000000000F7010000E1070000EA
:10004000FB01000035090000490900005B090000C0
:100050006D09000031FB0000FB010000FB01000006
:1000600053FC0000FB010000FB010000FB0100004D
:10007000FB010000FB010000FB010000FB01000090
:10008000FB01000079010000FB010000FB01000002
:10009000FB010000FB010000FB010000FB01000070
:1000A000250F0100FB010000FB010000FB01000027
:1000B000FB010000FB010000FB010000FB01000050
:1000C000FB010000FB010000FB010000FB01000040
:1000D000FB010000FB010000A9050000FB0100007E
:1000E000FB010000DFF80CD012F08AF8004800474E
:1000F000050600003848001070B505460C46A4F10E
:1001000020000B4A02EB00111022284600F0ABF849
:1001100070BDA1F1200202EB4202064B03EB82020A
:100120001368036053684360926882607047000000
:10013000A0870100908D01000D4843F60C3102E0CC
:1001400000220270401C0A1EA1F1010399B2F7D1EE
:1001500008484FF45C5102E0FF220270401C0A1E66
:10016000A1F1010399B2F7D1014B83F80C24704738
:10017000480200105406001010B5012115480DF07A
:1001800067FE50B1144913480DF054FD0120134986
:10019000087001210F480DF063FE10BD10B50D4829
:1001A0000DF096FB0B480DF0ACFB012109480DF05A
:1001B000B1FB0122002107480DF0B8FB11200121FD
:1001C00081404209920002F1E022C2F8001100BF12
:1001D00010BD000000400240604100106A000010A5
:1001E0000648804706480047FEE7FEE7FEE7FEE7D1
:1001F000FEE7FEE7FEE7FEE7FEE7FEE7D9E50000E3
:10020000E50000002DE9F05F0546002092469B4680
:1002100088460646814640241BE02846414647461C
:10022000224611F008FF53465A46C01A914110D396
:1002300011461846224611F0EFFE2D1A67EB010811
:100240004F4622460120002111F0E6FE17EB00097F
:100250004E41201EA4F10104DFDC484631462A4607
:100260004346BDE8F09F40EA01039B0703D009E045
:1002700008C9121F08C0042AFAD203E011F8013B92
:1002800000F8013B521EF9D27047D2B201E000F8EB
:10029000012B491EFBD270470022F6E710B513462A
:1002A0000A4604461946FFF7F0FF204610BD10B578
:1002B000002200E0521C835C8C5CA34201D1002B25
:1002C000F8D1D8B2E1B2401A10BD962300221146EF
:1002D00011F0DCBE0EB5C10F80EAE0700844CA0719
:1002E000002140F233438DE80E000A460B4611F020
:1002F0000AFF03B000BD11F05BBC7047FFFFFFFFBA
:1003000040F20120974908609749C1F88401954956
:1003100008310860091D0860091D0860091D086092
:10032000091D0860091D0860091D0860091D086095
:10033000091D0860091D0860091D0860091D086085
:10034000091D0860091D0860091D0860091D086075
:10035000091D0860091D0860091D0860091D086065
:10036000091D0860091D0860091D0860091D086055
:10037000091D0860091D0860091D0860091D086045
:10038000091D0860091D0860091D0860091D086035
:10039000091D0860091D0860091D0860091D086025
:1003A000091D0860091D0860091D0860091D086015
:1003B000091D0860091D0860091D0860091D086005
:1003C000091D0860091D0860091D0860091D0860F5
:1003D000091D0860091D0860091D0860091D0860E5
:1003E000091D0860091D08605E49E43108605D4927
:1003F00040390860091D0860091D086059493039F5
:100400000860584920390860564910390860091DAC
:100410000860091D08605449C1F87C0170472DE946
:10042000F04100BF00BF5148006840F400604F49F0
:10043000C439C1F8C40041F61F704D49086001205D
:100440004C49086000208860FFF75AFF4A4800685E
:100450004A49B0FBF1F74548C438D0F8000100B173
:100460007F084FF47A70B0FBF7F404F11300B0FB8F
:10047000F4F0404908630F2048630020886301209E
:10048000C86304F11300B0FBF4F0801C0864012081
:10049000486404F13E00B0FBF4F0886404F13E00CF
:1004A000B0FBF4F0C8640F20086504F13E00B0FB17
:1004B000F4F0486501208865886240F203303049D5
:1004C00008604FF48D402B49C1F800012C49091FE9
:1004D00008606421002000F0AFF940F28310254944
:1004E0000862C821002000F0A7F940F2031021495A
:1004F000086202204862002600E0761C802EFCD3B1
:1005000041F68465A5F1100085B22D1105FB07F0B9
:100510004FF47A71B0FBF1F085B216484562832042
:10052000144908621748D0F8008000200862144877
:10053000001F006840F40020C1F8000101210020E4
:1005400000F07AF90121002000F076F908480068EF
:1005500020F01F0848F011000449C439C1F8DC013B
:10056000BDE8F08180C1024000C00240C4C00F401D
:10057000DCC10F4000C009208C00001040420F0079
:1005800004C10920004006A010B5002807DACA06F9
:10059000140E9B4A00F00F031B1FD45403E0CA063D
:1005A000130E984A135410BD10B5012213210020D8
:1005B0000EF038F928B36FF07F4400E0641E002C81
:1005C000FCD19148007830B100208F4908700F208D
:1005D0008E49086005E001208B49087002208B4994
:1005E00008604FF4002100200EF047F9262000F0AB
:1005F0001F0201219140864A430942F8231000BF9F
:1006000000BF10BD8CB000200EF0B1FA804600276C
:100610004FF47A70B8FBF0F0451EB5F1807F00D33F
:1006200011E025F07F40401E4FF0E02148611F217E
:100630004FF0FF30FFF7A8FF00204FF0E021886166
:100640000720086100BF0122D10400200EF0CCF881
:1006500001212620FFF798FF262000F01F0201212C
:1006600091404209920002F1E022C2F8001100BF5D
:100670000DF0A2FD0DF01CFD0FF0E7F9002062491E
:1006800008704FF416500FF0A6FA0FF087FCFFF732
:1006900085FD0DF091FD0DF0E1FCFFF7C0FE00209F
:1006A00000F044FA5B494869002100F078FA012023
:1006B00000F03CFA00200DF058FD0F20534908606F
:1006C0008DE00DF0FFFD0446FF2C01D1002700E076
:1006D0007F1C022F03D14FF0501000F065FB4B48F8
:1006E0000068801E0E2878D2DFE800F0074A4351E8
:1006F0000E2E353C58746E5F66714FF0501000F04E
:1007000053FB08F0A3FC69E010F017FB10F004FEA7
:10071000C6B286B901AA0BA90AA811F056F8C6B24A
:100720004EB90FF0AFFDC6B216213BA008F0F3FFA3
:1007300001203F4908704FF0501000F035FB0DF0DC
:10074000D7FB09F023FB49E04FF0501000F02CFBE1
:100750000AF05AFC42E04FF0501000F025FB0AF07E
:100760003BFD3BE04FF0501000F01EFB0AF010FE86
:1007700034E04FF0501000F017FB09F0E9FF2DE0D6
:100780004FF0501000F010FB0AF0F8FB26E04FF09D
:10079000501000F009FB0AF021F81FE04FF0501054
:1007A00000F002FB0CF0ABFB18E04FF0501000F033
:1007B000FBFA0BF0C9FB11E04FF0501000F0F4FA17
:1007C0000AF006FF0AE008E00BF0F9FD06E00DF084
:1007D00042F803E00CF0E5FD00E000BF00BF70E769
:1007E00014480068401C134908607047114A11689A
:1007F00000BF104A1268521A8242FAD370470000B2
:1008000018ED00E000E400E06B000010780000103C
:1008100080E100E030000010D6F7B2CECAFD090931
:10082000B8B1B2CECAFD0909B7D6D1A10D0A0000F0
:100830006600001000000010F8B902224FF04023BB
:100840005A600022DA60B04A12684FF47A73B2FB41
:10085000F3F2521E4A434FF040239A61FF221A607E
:1008600004225A6101225A6000BF4FF040225268B0
:1008700002F00102002AF8D15BE001281CD102221B
:10088000A24B5A600022DA609F4A12684FF47A73D2
:10089000B2FBF3F2521E4A439C4B9A61FF221A604C
:1008A00004225A6101225A6000BF984A526802F03D
:1008B0000102002AF9D13CE002281CD10222944B0B
:1008C0005A600022DA60904A12684FF47A73B2FBE1
:1008D000F3F2521E4A438E4B9A61FF221A600422A1
:1008E0005A6101225A6000BF894A526802F001022F
:1008F000002AF9D11DE003281BD10222854B5A6042
:100900000022DA60804A12684FF47A73B2FBF3F285
:10091000521E4A437F4B9A61FF221A6004225A6199
:1009200001225A6000BF7B4A526802F00102002A8D
:10093000F9D1704701204FF04021086076480068E7
:10094000401C754908607047012070490860734871
:100950000068401C71490860704701206C490860BC
:100960006F480068401C6E49086070470120694963
:1009700008606C480068401C6A490860704720B9EC
:1009800001214FF04022516010E0012803D10121E4
:100990005E4A51600AE0022803D101215C4A51609D
:1009A00004E0032802D101215A4A5160704720B95E
:1009B00000214FF04022516010E0012803D10021B6
:1009C000524A51600AE0022803D10021504A516086
:1009D00004E0032802D100214D4A516070470146CE
:1009E00031B94FF04022506840F00200506016E0EC
:1009F000012905D1454A506840F0020050600EE0E0
:100A0000022905D1424A506840F00200506006E0D9
:100A1000032904D13F4A506840F0020050607047FB
:100A200070B505460C46F5B900203B4908603E48C4
:100A3000006840F002003C49C439C1F8C4004FF0DE
:100A40004020406840F002004FF0402148604EF6E0
:100A50005F20C8600846846103204861012000F0DF
:100A600048F8012070BD012D14D100202B490860E9
:100A70002D48006840F004002B49C439C1F8C40077
:100A800022488461032021494861022000F031F8A6
:100A90000120E7E7022D13D10020214908602248F8
:100AA000006840F480002049C439C1F8C4001848E7
:100AB000846103201649486100F01BF80120D1E74A
:100AC000032D14D10020174908601748006840F42E
:100AD00000001549C439C1F8C4000E4884610320E0
:100AE0000C494861042000F004F80120BAE7002016
:100AF000B8E700F01F02012191404209920002F183
:100B0000E022C2F800117047900000100080004001
:100B10000000094000400940180000101C000010AF
:100B20002000001024000010C4C00F4008B5B0B170
:100B3000F949896941F00101F74A916142F2107166
:100B4000009108E0F449896941F40061F24A916139
:100B50000099491E009100990029F3D115E0EE4952
:100B6000896921F40061EC4A916142F210710091AF
:100B700002E00099491E009100990029F9D1E64947
:100B8000896921F00101E44A916108BDE34A00212D
:100B900002E008C808C2491C8029FAD370472DE931
:100BA000704381460D46DFF8788300BF2720DD497A
:100BB00008614861DC490860DA49C1F87402DB4920
:100BC0000860091D0860091D0860091D0860D549F5
:100BD0008861C861D54948390860091D0860091D48
:100BE0000860091D0860091D0860091D0860CD49DD
:100BF00008624862CD4918310860091D0860CB4978
:100C000030390860091D0860091D0860091D086069
:100C1000C64910390860C549091F0860C3490C3925
:100C20000860091D0860BF49C1F80001C048006C98
:100C300040F00200BE4908640846806D40F00A009A
:100C40008865BC48D0F8C40040F00100B949C1F83B
:100C5000C400B948006820F00100B74908600020CE
:100C6000AD4988610846806920F00E008861084619
:100C7000806940F00A0088610846806940F02000E1
:100C800088610846806920F0800088610846806994
:100C900020F4807088610846806920F400708861C3
:100CA0000846806920F4806088610846806920F4E5
:100CB00000608861A1480068A149B0FBF1F09D493E
:100CC000C1F8B8019448806840F08060924988601B
:100CD0000846806820F0200088600846806840F45C
:100CE000006088600846806840F48050886008464C
:100CF000806820F4005088600846806820F48040B6
:100D00008860084680688F490840834988600846A3
:100D100080688D4908438049886000200860084643
:100D2000006840F01C5008600846006840F48020CD
:100D300008600846006840F4807008600846006853
:100D400040F074000860002048600846406840F0A9
:100D5000006048600846406840F40020486008464B
:100D6000406840F4806048600846406840F20F11D7
:100D700008436949486040460861486115B1284602
:100D8000FFF704FF664E002403E04FF47F0001C626
:100D9000641CB4F5FF3FF8D342F2107400E0641E07
:100DA000002CFCD1BDE870835D4A002101E001C246
:100DB000491CB1F5FF3FFAD370472DE9F0410C46CD
:100DC000069FC3F5887CCCEB0C1CDFF8548108EB44
:100DD000CC1CC2F5F0780CEB880100260EE0002553
:100DE00001E080C16D1CA2EB000CAC45F9D8A2EB70
:100DF000000CCCF5F07C01EB8C01761CA3EB040C11
:100E0000B445ECD8BDE8F08170B5454BB0F5F07F46
:100E100002DAB1F5887F00DB70BDC0F5F0756D1E9C
:100E2000C1F58876761EC6EB061605EB461403EB75
:100E300084031A6000BFEFE72DE9F04F04460D462A
:100E400091469A46DDF824B04C4503DD0FFA89F748
:100E5000A146BCB2554503DD0FFA8AF7AA46BDB2DA
:100E6000A9EB04000FFA80F8AAEB050006B2B8F16E
:100E7000000F0BD100BF5A4629462046FFF7C4FF9A
:100E8000681C85B2AA45F6DABDE8F08F56B900BFF6
:100E90005A4629462046FFF7B7FF601C84B2A14599
:100EA000F6DAF1E7B04521DDC8EB460007B215E000
:100EB0005A4629462046FFF7A7FF601C84B2002F40
:100EC00008DD681C85B27000022101FB180038445F
:100ED00007B203E0022000FB067007B24C45E7D1E1
:100EE0005A4629462046FFF78FFF3AE0C6EB4800F6
:100EF00007B22FE05A4629462046FFF785FF681CB7
:100F000085B2002F22DD601C84B27000022101FB3B
:100F10001800384407B21DE0008008200082082035
:100F2000000001A000C0024070C2024018C102408F
:100F30000080092000C00F40008C082090000010A5
:100F40009C997400FFFF00FC0000DF01022000FB01
:100F5000067007B25545CDD15A4629462046FFF7BF
:100F600053FF00BF90E72DE9FF5F06460F4690460E
:100F70009946DDF838B041466846FFF7BDF80024D1
:100F80001DE01DF804A0002516E0C5F107004AFA8F
:100F900000F000F0010038B13A1991B2721990B224
:100FA0004A46FFF731FF06E03A1991B2721990B242
:100FB0005A46FFF729FF6D1C082DE6D3641C102C40
:100FC000DFD3BDE8FF9F2DE9FE4F06460F46904652
:100FD0009946DDF830B041466846FFF79AF800249C
:100FE0001DE01DF804A0002516E0C5F107004AFA2F
:100FF00000F000F0010038B13A1991B2721990B2C4
:101000004A46FFF701FF06E03A1991B2721990B211
:101010005A46FFF7F9FE6D1C082DE6D3641C0C2C14
:10102000DFD3BDE8FE8F2DE9F84305460E46144692
:101030009846DDF8209000BF14F8017B43463A46FD
:1010400031462846CDF80090FFF78DFFB5F5EC7FCF
:1010500003DA05F1080085B208E0FF2E04DC002564
:1010600006F1100086B201E0002500262078002855
:10107000E2D1BDE8F8832DE9FF4F074688469B463D
:101080003C464546BA4646464FF0000915E0A4F1F5
:10109000140188B22946029AFFF7B6FE601C84B29A
:1010A000A6F1140081B25046029AFFF7ADFE701C03
:1010B00086B209F101001FFA80F9B9F1280FE6DBC9
:1010C0003C464546BA4646464FF000092BE0A5F19E
:1010D000140291B2A4F1140290B25A46FFF794FEA2
:1010E00005F1140291B2A4F1140290B25A46FFF72E
:1010F0008BFE601C84B2A6F1140291B2AAF1140214
:1011000090B25A46FFF780FEA6F1140291B20AF19E
:10111000140290B25A46FFF777FE701C86B209F1AE
:1011200001001FFA80F9B9F10A0FD0DB3C464546B1
:10113000BA4646464FF000092BE0A5F1140291B2E1
:1011400004F10A0290B25A46FFF75EFE05F114025E
:1011500091B204F10A0290B25A46FFF755FE601CA4
:1011600084B206F10A0291B2AAF1140290B25A4670
:10117000FFF74AFE06F10A0291B20AF1140290B298
:101180005A46FFF741FE701C86B209F101001FFAB2
:1011900080F9B9F10A0FD0DBBDE8FF8F10B5024628
:1011A000002112E001EB8110F74B185C1378984294
:1011B00009D1507801EB8113F34C23445B789842BA
:1011C00001D1084610BD481C81B27729EAD300201E
:1011D000F8E710B50246002114E001EB0110EB4BDB
:1011E00013F81000137898420AD1507801EB0113DC
:1011F000E64C04EB43035B78984201D1084610BDEE
:10120000481C81B2A629E8D30020F8E72DE9F04F69
:1012100004460F4615469846A3464FF0000900269F
:101220002DE0099810F806904FF0000A21E009F02F
:10123000800030B1D648394602682046FFF7E4FD09
:1012400005E0D348394642682046FFF7DDFD4FEA06
:1012500049604FEA1069601C84B2A4EB0B00A842FD
:1012600003D15C46781C87B206E00AF1010000F069
:10127000FF0ABAF1080FDADB00BF701C86B205FB6B
:1012800008F0C11700EB5171B6EBE10FC9DBBDE807
:10129000F08F2DE9F04F0546894692469B46A846B9
:1012A0000026BBF1000F32D100242DE00AEB0A101A
:1012B000B64901EB4000801C065D00271FE006F0E8
:1012C000800030B1B248494602682846FFF79CFDCD
:1012D00005E0AF48494642682846FFF795FD70068D
:1012E000060E681C85B2A5EB0800102805D14546FE
:1012F00009F101001FFA80F903E0781CC7B2082F3A
:10130000DDDB00BF601CC4B2202CCFDB31E0002449
:101310002DE00AEB0A109D4901EB4000801C065DA0
:1013200000271FE006F0800030B199484946426826
:101330002846FFF769FD05E09548494602682846BA
:10134000FFF762FD7006060E681C85B2A5EB08006B
:10135000102805D1454609F101001FFA80F903E084
:10136000781CC7B2082FDDDB00BF601CC4B2202C84
:10137000CFDBBDE8F08F2DE9F04F05468946924658
:101380009B46A8460026BBF1000F31D100242CE07B
:101390000AEB8A107C490844801C065D00271FE088
:1013A00006F0800030B17A48494602682846FFF7C7
:1013B0002BFD05E07648494642682846FFF724FDA4
:1013C0007006060E681C85B2A5EB0800182805D12A
:1013D000454609F101001FFA80F903E0781CC7B205
:1013E000082FDDDB00BF601CC4B23F2CD0DB30E037
:1013F00000242CE00AEB8A1063490844801C065D37
:1014000000271FE006F0800030B16148494642687D
:101410002846FFF7F9FC05E05D4849460268284682
:10142000FFF7F2FC7006060E681C85B2A5EB0800FB
:10143000182805D1454609F101001FFA80F903E09B
:10144000781CC7B2082FDDDB00BF601CC4B23F2C84
:10145000D0DBBDE8F08FF0B504460D4616461F46BA
:101460003B46224631462846FFF785FF1820F0BD4F
:10147000F0B504460D4616461F463B462246314609
:101480002846FFF706FF1220F0BD2DE9F843064677
:101490000D4614461F464FF00008C14652E0207822
:1014A00000B950E006EB090086B2207880281ADDEA
:1014B00006F11800B0F5F07F07DD002605F11600F3
:1014C00085B2B5F5887F00DD00252046FFF766FE72
:1014D0001FFA80F83B462A4631464046FFF7BBFFDD
:1014E0008146A41C2DE020780D280AD105F11600B4
:1014F00085B2B5F5887F00DD0025641C4FF000093A
:1015000020E020780A2804D10026641C4FF000094E
:1015100018E006F10C00B0F5F07F07DD002605F1BC
:101520000C0085B2B5F5887F00DD002518484068BD
:10153000009017482278294603683046FFF713FDCC
:10154000641C00BFABE700BFBDE8F8832DE9F84796
:101550000546884614464FF0000A002634E02078FD
:1015600000B932E02078302807DB2078392804DC05
:10157000207830381FFA80F90EE020782E2809D123
:101580004FF00A0908E00000783A0100AF58010066
:10159000280000104FF00B094FEA4917F81707EB26
:1015A0005070C01000EBC001C1EB80109D49084491
:1015B000A919009088B2372320224146FFF726FE62
:1015C000641C06F1200086B2C9E700BFBDE8F887B9
:1015D0002DE9F84306460D4614461F464FF0000815
:1015E000C14654E0207800B952E006EB090086B20B
:1015F000207880281ADD06F11000B0F5F07F07DDB5
:10160000002605F1100085B2B5F5887F00DD0025C4
:101610002046FFF7DEFD1FFA80F83B462A4631469A
:101620004046FFF725FF8146A41C2FE020780D28B7
:101630000AD105F1100085B2B5F5887F00DD0025DF
:10164000641C4FF0000922E020780A2804D100260B
:10165000641C4FF000091AE006F10800B0F5F07FB5
:1016600007DD002605F1080085B2B5F5887F00DDAD
:1016700000256D48406800906B4822782946036831
:101680003046FFF770FC641C4FF00A0900BFA9E761
:1016900000BFBDE8F8832DE9F84306460D46144621
:1016A0001F464FF00008C14654E0207800B952E0D0
:1016B00006EB090086B2207880281ADD06F11000BA
:1016C000B0F5F07F07DD002605F1100085B2B5F515
:1016D000887F00DD00252046FFF77BFD1FFA80F89C
:1016E0003B462A4631464046FFF7C2FE8146A41CCF
:1016F0002FE020780D280AD105F1100085B2B5F54C
:10170000887F00DD0025641C4FF0000922E020786E
:101710000A2804D10026641C4FF000091AE006F1E3
:101720000800B0F5F07F07DD002605F1080085B25E
:10173000B5F5887F00DD00253B48406800903A48B9
:101740002278294603683046FFF73DFC641C4FF0C1
:10175000080900BFA9E700BFBDE8F883F0B504465B
:101760001D46062A00DD0A2202B90122052900DDF4
:101770000521914200DD1146002004E020262B4F78
:101780003E54461CF0B20C28F8D310460FE00A264F
:10179000B4FBF6F706FB17463036471EDFF88CC061
:1017A0000CF807600A26B4FBF6F4461EF0B20028D7
:1017B000EDDC89B11346084605E05E1E1B4FBE5D99
:1017C000FE545E1EF3B2061EA0F10107F8B2F4D17A
:1017D0002E26164FFE5402E02026144FBE54A5B903
:1017E00000200EE0114E365C302E07D10F4F461C04
:1017F000BE5D2E2E02D020263E5400E004E0461CA2
:10180000F0B2561E8642EDDC00BF561CF2B2104606
:1018100004E00026054F3E54461CF0B20C28F8D3D5
:10182000F0BD000034940100280000105441001065
:1018300038B5002474E0FA48A10004EB440303EB3C
:10184000041301EB8301009088B204EB84014C2364
:1018500003EB01118AB240F20F13E421FFF7ADFA56
:10186000F04804EB84014C2303EB01118AB204EB32
:1018700084010901491C009088B2E3231946FFF74F
:10188000DBFAE84804EB84014C2303EB01118AB234
:1018900004EB840103EB0111009088B240F20F13B6
:1018A000E321FFF7C9FA002004EB84014C2303EB8A
:1018B0000111491C8AB204EB840103EB0111491C9C
:1018C000009088B240F20F13E321FFF7B5FA002031
:1018D00004EB84014C2303EB0111891C8AB204EB55
:1018E000840103EB0111891C009088B240F20F13B0
:1018F000E321FFF7A1FA002004EB84014C2303EB62
:101900000111C91C8AB204EB840103EB0111C91C4B
:10191000009088B240F20F13E321FFF78DFA641CA8
:10192000062C88D338BD10B5FFF782FFBC48BE49EE
:1019300048606FF07F4008600023BCA2F121542072
:10194000FFF746FE0023BBA2F121A420FFF740FED3
:1019500010BD70B50546FFF76BFFB148B24948604E
:101960006FF07F4008604DBB002424E0042C10D1B0
:1019700004EB4401B04B03EB410204EB840154231C
:1019800003EB01110E3188B20023F121FFF720FE95
:101990000FE004EB4401A84B03EB410204EB84018C
:1019A000542303EB01111D3188B20023F121FFF70D
:1019B0000FFE601CC4B2052CD8DB3DE0002439E0EA
:1019C000042C11D1611D01EB41019B4B03EB410242
:1019D00004EB8401542303EB01110E3188B2002380
:1019E000F121FFF7F5FD23E08CB9611D01EB410109
:1019F000914B03EB410204EB8401542303EB0111EF
:101A0000183188B20023F121FFF7E2FD10E0611DDB
:101A100001EB4101884B03EB410204EB84015423A9
:101A200003EB01111D3188B20023F121FFF7D0FD36
:101A3000601CC4B2052CC3DB70BD10B5FFF7F8FE07
:101A40007748794948606FF07F40086000237BA2A7
:101A5000F1215420FFF7BCFD002379A2F121A4203D
:101A6000FFF7B6FD10BD10B5FFF7E2FE6C486E49FA
:101A700048606FF07F400860002372A2F12154207B
:101A8000FFF7A6FD10BD10B5FFF7D2FE6FF07F4047
:101A900065490860624848606B48D0F84C030128EB
:101AA00012D1002369A2F2215320FFF791FD0023F8
:101AB00068A2F221A320FFF78BFD002367A2F22189
:101AC000FC20FFF785FD15E05F48D0F84C0388B98E
:101AD000002364A2F2215320FFF77AFD002364A2C1
:101AE000F221A320FFF774FD002364A2F221FC2061
:101AF000FFF76EFD10BD10B50446FFF799FE002CF0
:101B000035D16FF07F4048490860454848604E48ED
:101B1000D0F84C03012812D100234CA2F22153200B
:101B2000FFF756FD00234BA2F221A320FFF750FD43
:101B300000234AA2F221FC20FFF74AFDE2E04248DE
:101B4000D0F84C030028F9D100234EA2F2215320F3
:101B5000FFF73EFD002346A2F221A320FFF738FD48
:101B6000002346A2F221FC20FFF732FDCAE0012C3F
:101B70003DD16FF07F402C490860294848603248C9
:101B8000D0F84C03012813D1002341A2F2215320A5
:101B9000FFF71EFD002341A2F221A320FFF718FD4D
:101BA000002341A2F22140F29310FFF711FD16E04D
:101BB0002548D0F84C0390B900233DA2F2215320D0
:101BC000FFF706FD00233DA2F221A320FFF700FD51
:101BD00000233DA2F22140F29310FFF7F9FC00230D
:101BE0003BA2F22140F2BD10FFF7F2FC8AE06FF059
:101BF0007F400D4908600A4848601348D0F84C03FC
:101C000001286FD1002333A2F2215320FFF7E0FC1B
:101C1000002332A2F221A320FFF7DAFC72E061E098
:101C20003800310068436900280000106D73656357
:101C30000000000073656300AD850100487A000074
:101C40004B487A002A310000480200104D454153AC
:101C5000534554004E6F2E4449535000434F554E48
:101C600054200000B2E2C1BFC9E8D6C300000000A2
:101C7000B5B5BAC5CFD4CABE00000000B5B5BCC664
:101C8000CAFD0000B2E2C1BFCFD4CABE000000004E
:101C900046494C4520534554000000005361766589
:101CA00044617461000000004D4F52450000000087
:101CB000CEC4BCFEB9DCC0ED00000000B1A3B4E6A8
:101CC000CAFDBEDD00000000B8FCB6E00000000068
:101CD000322F320043414E43454C2000434F4E4685
:101CE00049524D00F548D0F84C0358B90023F4A2EE
:101CF000F2215320FFF76CFC0023F3A2F221A32072
:101D0000FFF766FC10BD10B5FFF792FD6FF07F4046
:101D1000EF490860EF484860E848D0F84C030128D4
:101D20000CD10023ECA2E7215420FFF751FC002343
:101D3000EBA2FB215420FFF74BFC0FE0DF48D0F86B
:101D40004C0358B90023E8A2E7215420FFF740FCD8
:101D50000023E7A2FB215420FFF73AFCD748D0F834
:101D60004C0301280ED10023E3A2F1214FF4A2700D
:101D7000FFF72EFC0023E2A2F1214FF4CA70FFF717
:101D800027FC11E0CD48D0F84C0368B90023DEA24F
:101D9000F1214FF4A270FFF71BFC0023DCA2F1211C
:101DA0004FF4CA70FFF714FC10BD10B50446FFF7DE
:101DB0003FFD0CB1012C69D16FF07F40C449086030
:101DC000C4484860BD48D0F84C0301282CD10023FA
:101DD000D1A2F1215420FFF7FBFB0023D0A2E72181
:101DE000A420FFF7F5FB0023CFA2FB21A420FFF7DF
:101DF000EFFB0023CEA2E721F420FFF7E9FB00234D
:101E0000C9A2FB21F420FFF7E3FB0023BAA2F121D2
:101E10004FF4A270FFF7DCFB0023B9A2F1214FF4CD
:101E2000CA70FFF7D5FB81E0A448D0F84C03002826
:101E30007CD10023C0A2F1215420FFF7C9FB00236D
:101E4000BFA2E721A420FFF7C3FB0023BEA2FB2112
:101E5000A420FFF7BDFB0023BDA2E721F420FFF77C
:101E6000B7FB0023B8A2FB21F420FFF7B1FB00234E
:101E7000A5A2F1214FF4A270FFF7AAFB0023A4A2B0
:101E8000F1214FF4CA70FFF7A3FB4FE06FF07F40E2
:101E90008F4908608F4848608848D0F84C03012873
:101EA00020D100239CA2F1215420FFF791FB0023B5
:101EB0009DA2E721A420FFF78BFB0023A6A2FB2114
:101EC000A420FFF785FB00238BA2F1214FF4A27021
:101ED000FFF77EFB00238AA2F1214FF4CA70FFF7BF
:101EE00077FB23E07548D0F84C03F8B9002392A2A1
:101EF000F1215420FFF76CFB002393A2E721A420DB
:101F0000FFF766FB002396A2FB21A420FFF760FBEE
:101F100000237DA2F1214FF4A270FFF759FB0023AB
:101F20007BA2F1214FF4CA70FFF752FB10BD10B530
:101F30000446FFF77DFC002C44D16FF07F406449DC
:101F40000860644848605D48D0F84C03012819D106
:101F5000002385A2F2215320FFF73AFB002384A23D
:101F6000F221A320FFF734FB002383A2F221F32008
:101F7000FFF72EFB002382A2F22140F24310FFF76D
:101F800027FB79E14D48D0F84C030028F9D1002314
:101F9000AFF21032F2215320FFF71AFB00237AA28E
:101FA000F221A320FFF714FB00237AA2F221F320F1
:101FB000FFF70EFB00237AA2F22140F24310FFF755
:101FC00007FB59E1012C78D16FF07F404049086050
:101FD000404848603948D0F84C03012833D10023E9
:101FE00072A2E7215420FFF7F3FA002371A2FB212C
:101FF0005420FFF7EDFA002370A2E721A420FFF799
:10200000E7FA00236FA2FB21A420FFF7E1FA0023E7
:102010006EA2F121F420FFF7DBFA002369A2FB2175
:10202000F420FFF7D5FA0023AFF28432E7214FF412
:10203000CA70FFF7CDFA002366A2FB214FF4CA70E5
:10204000FFF7C6FA18E11D48D0F84C03002898D1D4
:10205000002362A2E7215420FFF7BAFA0023AFF26F
:10206000AC32FB215420FFF7B3FA00235DA2E72135
:10207000A420FFF7ADFA002347A2FB21A420FFF71D
:10208000A7FA002359A2F121F420FFF7A1FA0023B7
:1020900041A2FB21F420FFF79BFA0023AFF2D832D4
:1020A000E7214FF4CA70FFF793FA002349A2FB21FE
:1020B0004FF4CA70FFF78CFADEE09BE04802001094
:1020C0002020C8A1CFFB20002020C8B7C8CF200007
:1020D0002800001038003100434C4541000000004A
:1020E0004C49535400000000C7E5B3FD0000000058
:1020F000B1EDB8F1000000004C6173742050000095
:102100004E65787420500000C9CFD2BBD2B3000016
:10211000CFC2D2BBD2B3000044656C526F770000CF
:102120004C494E450000000041544F55000000004E
:102130004C4F472000000000C9BEB3FDD0D00000C6
:10214000CFDFD0D400000000D7D4B6AF000000002D
:10215000B6D4CAFD00000000434F505900000000F3
:10216000B8B4D6C6000000004D4541444953500064
:10217000434F5252454354004C4D54534554000074
:102180005359535345540000D3C3BBA7D0A3D5FD27
:1021900000000000BCABCFDEC9E8D6C300000000E1
:1021A000CFB5CDB3C9E8D6C30000000046494C45C1
:1021B000000000004D414E450000000053595320DF
:1021C000000000005345542000000000544F4F4CC5
:1021D0000000000020322F3200000000CEC4BCFE00
:1021E00000000000CFB5CDB300000000B9A4BEDFF1
:1021F000000000006FF07F40FE490860FE48486024
:10220000FE48D0F84C03012819D10023FCA2F2218A
:102210005320FFF7DDF90023FCA2F221A320FFF7F2
:10222000D7F90023FCA2F221F320FFF7D1F9002314
:10223000FCA2F22140F24310FFF7CAF91CE0EF487C
:10224000D0F84C03C0B90023F9A2F2215320FFF7C4
:10225000BFF90023F9A2F221A320FFF7B9F9002367
:10226000F9A2F221F320FFF7B3F90023F9A2F2213A
:1022700040F24310FFF7ACF910BD10B56FF07F408E
:10228000DC490860DC484860DC48D0F84C03012891
:1022900006D10023F2A2F2215320FFF799F90AE0B8
:1022A000D648D0F84C0330B90023AFF24862F2218F
:1022B0005320FFF78DF910BD10B56FF07F40CD4969
:1022C0000860CD484860CD48D0F84C0301281AD1A9
:1022D0000023CBA2F2215320FFF77AF90023CBA2EF
:1022E000F221A320FFF774F90023DFA2F2214FF4BB
:1022F0008370FFF76DF90023CAA2F22140F2931018
:10230000FFF766F91DE0BD48D0F84C03C8B90023BB
:10231000C7A2F2215320FFF75BF90023C7A2F221E5
:10232000A320FFF755F90023D1A2F2214FF48370C7
:10233000FFF74EF90023C7A2F22140F29310FFF7F6
:1023400047F910BD08B5CC481623D22200210090D1
:102350000846FEF732FD08BD08B5C848CA2340F25A
:10236000DF125C2100900020FEF727FD08BD08B5B4
:10237000C1481623A022002100900846FEF71DFD4B
:10238000FFF756FAFFF7E8FF08BD10B5FFF7EFFFBC
:102390006FF07F4097490860B74848609748D0F889
:1023A0004C03012806D10023B54A04211846FFF743
:1023B0000FF909E09148D0F84C0328B90023B14A3D
:1023C00004211846FFF704F96FF07F40894908603F
:1023D0004FF050104860002491E0032C2CD2874825
:1023E000D0F84C03012811D104EB8400A64B03EB79
:1023F000400204EB440000EBC4001A2303EB40004E
:1024000081B200231846FFF7E3F843E07B48D0F899
:102410004C0340BB04EB84009C4B03EB400204EBF9
:10242000440000EBC4001A2303EB400081B20023F8
:102430001846FFF7CDF82DE07048D0F84C0301287E
:1024400012D104EB8400904B03EB4002E01E00EB42
:10245000400303EBC0001A2303EB400081B20023CA
:10246000FA20FFF7B5F815E06448D0F84C0388B9B6
:1024700004EB8400854B03EB4002E01E00EB4003BD
:1024800003EBC0001A2303EB400081B20023FA20C3
:10249000FFF79EF85948D0F84C03012815D10023C6
:1024A000794A3232D2211846FFF792F80023764A51
:1024B0003C32D2217820FFF78BF80023724A463253
:1024C000D221FA20FFF784F818E04C48D0F84C03EA
:1024D000A0B900236D4A3232D2211846FFF778F8AE
:1024E00000236A4A3C32D2217820FFF771F800239A
:1024F000664A4632D221FA20FFF76AF8641C052C9E
:10250000FFF46BAFFFF7BFFA10BD08B55B48BE2301
:1025100040F2DF12A02100900020FEF74EFC08BD23
:1025200008B555481623A022002100900846FEF762
:1025300044FCFFF77DF9FFF7E8FF08BD38B5044616
:102540004FF050102B494860514800EB84020123A2
:10255000C8211420FFF73CF84E4800EB8402012309
:10256000C8214FF48C70FFF733F844482149486084
:102570004948372328227A2100905020FEF746FE52
:102580004648372328227A2100907820FEF73EFE25
:102590004348372328227A2100908C20FEF736FE0C
:1025A00038BD10B5FFF7BCFF6FF07F4011490860E0
:1025B000314848601148D0F84C03012807D1002366
:1025C0002F4A163204211846FFF702F80AE00B489A
:1025D000D0F84C0330B900232A4A16320421184699
:1025E000FEF7F6FF6FF07F40024908604FF0501091
:1025F000486057E028000010380031004802001001
:102600004320436F72726574000000005220436FD4
:1026100072726574000000004578697453617665D4
:1026200000000000436C6520436F727200000000E0
:10263000B5E7C8DDD0A3D5FD00000000B5E7D7E8B9
:10264000D0A3D5FD00000000CDCBB3F6B1A3B4E616
:1026500000000000C7E5B3FDD0A3D5FD00000000D9
:102660004D6561735365740045786974000000001E
:10267000CDCBB3F600000000F35203003434650004
:102680009E820100AC810100AD740100FD74010067
:10269000DD7701003978010059A601009CB80100DE
:1026A000AFB90100002455E0032C28D2F948D0F836
:1026B0004C0301280FD1F84800EBC40204EB44009E
:1026C00000EBC4001A2303EB400081B2002318463C
:1026D000FEF77EFF3DE0EF48D0F84C0320BBEF480B
:1026E00000EBC40204EB440000EBC4001A2303EB2C
:1026F000400081B200231846FEF76AFF29E0E54852
:10270000D0F84C03012810D1E34800EBC402E01ECE
:1027100000EB400303EBC0001A2303EB400081B23F
:102720000023FA20FEF754FF13E0DA48D0F84C03F8
:1027300078B9DA4800EBC402E01E00EB400303EB7B
:10274000C0001A2303EB400081B20023FA20FEF7F9
:102750003FFF641C062CA7D3CE4991F88803FFF7EE
:10276000EDFE0020FFF7C7F910BD08B5CC48A02347
:1027700040F2DF12562100900020FEF71EFBC848F1
:10278000E32340F2DF12C12100900020FEF715FB89
:1027900008BD08B5C3481623B222002100900846A0
:1027A000FEF70BFBFFF744F8FFF7DFFF08BD2DE94D
:1027B000F04104460D461646BB4B1B5D03EB43033D
:1027C000BA4FDA19B1B2A8B20023FEF701FFBDE893
:1027D000F08110B5FFF7DDFF6FF07F40B44908606E
:1027E000B0484860AB48D0F84C03012806D100231C
:1027F000B04A04211846FEF7EBFE09E0A548D0F8E0
:102800004C0328B90023AC4A04211846FEF7E0FE29
:102810006FF07F40A64908604FF0501048600024D8
:1028200079E0012C27D19B48D0F84C0301280ED128
:10283000C4EBC401A14BCA1804EB84011E2303EBB3
:10284000411188B200231821FEF7C2FE62E09148D0
:10285000D0F84C0300285DD1C4EBC401984BCA18D2
:1028600004EB84011E2303EB411188B200231821DD
:10287000FEF7AEFE4EE0022C26D18648D0F84C037F
:1028800001280ED1C4EBC4018C4BCA1804EB84019F
:10289000282303EB411188B200231821FEF798FE8C
:1028A00038E07C48D0F84C0308BBC4EBC401844B2F
:1028B000CA1804EB8401282303EB411188B20023DA
:1028C0001821FEF785FE25E07248D0F84C03012858
:1028D0000ED1C4EBC401794BCA1804EB84014FF646
:1028E000FF7303EA411000231821FEF771FE11E087
:1028F0006848D0F84C0368B9C4EBC401704BCA18DF
:1029000004EB84014FF6FF7303EA41100023182102
:10291000FEF75EFE641C032C83D35E48D0F8900360
:1029200000EB400101EBC000664942180123182169
:102930003C20FEF74DFE574A92F8EC100023D2F8E7
:10294000E8000622FEF70AFF01235F4A1821FA2059
:10295000FEF73EFE4F48D0F8F00000EB40005B4928
:102960004218012318214FF4A070FEF731FE4949A7
:102970001822D1F888034FF4A571FFF718FF002340
:1029800053A22C211846FEF786FE002351A22C21CB
:102990007820FEF780FE002350A22C21FA20FEF7BB
:1029A0007AFE00234FA22C2140F29D10FEF773FE09
:1029B00006243FE0A01F012801D9072802D3A01F49
:1029C000082803D936483A49486003E04FF05010D0
:1029D00037494860A01F00EB4001444800EB01105C
:1029E0004068E0B1A21F02EB4203404A02EB03122F
:1029F000117AA21F02EB42033C4A02EB03120123AD
:102A000050680622FEF7AAFEA01FC0EB00103A3065
:102A100081B201232C4A7820FEF73DFE09E0A01F79
:102A2000C0EB00103A3081B2012331A27820FEF7CA
:102A300032FE641C0F2CBDD319481D49486015484F
:102A4000D0F8D40278B1134A92F8D8120123D2F800
:102A5000D4020622FEF782FE01231B4AC4217820FD
:102A6000FEF719FE05E0012321A2C4217820FEF71C
:102A700012FE10247BE0A4F11000012801D90728E0
:102A800003D3A4F11000082836D905480849486046
:102A900036E0000048020010AC7F01007C7F01009E
:102AA00034346500F3520300FE85010016860100F0
:102AB00028000010CA820100D8810100A58301000E
:102AC000908301004C79010054410010E985010018
:102AD00042494E004C4F57205B465D0048494748ED
:102AE0005B465D00434F554E5400000050030010FC
:102AF0002D2D2D2D2D2D00004FF05010FE4948603A
:102B0000A4F1100000EB4001FC4800EB0110C0698B
:102B100000B3A4F1100202EB4203F84A02EB0312E5
:102B200092F82010A4F1100202EB4203F34A02EBE8
:102B300003120123D0690622FEF710FEA4F1100053
:102B4000C0EB00103A3081B20123ED4AFA20FEF7C3
:102B5000A2FD0BE0A4F11000C0EB00103A3081B2EE
:102B60000123AFF27402FA20FEF795FD641C192CC4
:102B700081D3E448E0494860E348D0F8D40278B112
:102B8000E14A92F8C0120123D2F8BC020622FEF7F5
:102B9000E5FD0123DA4AC421FA20FEF77CFD06E0B8
:102BA0000123AFF2B402C421FA20FEF774FD012420
:102BB00019E0022C05D9082C03D2D248CE4948602E
:102BC00003E04FF05010CC494860601E00EBC0009D
:102BD000CE4BC218C4EB04102B3081B20023082066
:102BE000FEF759FD641C0A2CE3D3C648C24948606D
:102BF0000023C7A2C4211846FEF74DFD0023C5A23D
:102C0000D4211846FEF747FD0023C4A2D421F820A2
:102C1000FEF741FD0020FEF76EFF10BD08B5B94874
:102C2000A02340F2DF12AF2100900020FEF7C5F88C
:102C300008BD10B5FFF786FBFEF7FAFDFFF7EEFFC4
:102C400010BD10B5FFF7F5FF6FF07F40AA4908608F
:102C5000B44848600023B44A04211846FEF7B8FC83
:102C60006FF07F40A44908604FF050104860A648BC
:102C7000D0F84C03012812D10023ACA21A21184627
:102C8000FEF7A6FC0023ABA230212820FEF7A0FC13
:102C90000023ABA230218C20FEF79AFC15E09A4865
:102CA000D0F84C0388B90023A7A21A211846FEF7D2
:102CB0008FFC0023A6A230212820FEF789FC0023E8
:102CC000A6A230218C20FEF783FC0023A5A2302190
:102CD000F020FEF77DFC0023A4A230214FF4AA705F
:102CE000FEF776FC0023A3A230214FF4DC70FEF740
:102CF0006FFC0020FEF7FFFE10BD08B581489A2347
:102D000040F2DF125A2100900020FEF756F808BD6D
:102D100008B584481623A822002100900846FEF733
:102D20004CF8FEF785FDFFF7E8FF08BD10B500245D
:102D300039E0052C19DA032C01D0042C03D1714899
:102D40006D49486003E04FF050106B49486004EB58
:102D5000440000EBC4001A2202EB4000411C002397
:102D600085A24820FEF734FC1BE0082C01D0092C7A
:102D700003D164486049486003E04FF050105E4959
:102D80004860601F00EB400202EBC0001A2202EB19
:102D90004000401C81B2002377A24FF4A170FEF7DF
:102DA00017FC601CC4B20A2CC3DB10BD10B5FFF7C2
:102DB000AFFF6FF07F40504908605A484860524862
:102DC000D0F84C03012807D10023574A16320421BA
:102DD0001846FEF7FDFB09E04B48D0F84C0328B934
:102DE0000023664A04211846FEF7F2FB6FF07F408D
:102DF000414908604FF05010486000247AE0424892
:102E0000D0F84C03012838D1052C1AD2022C05D950
:102E1000052C03D23B483849486003E04FF050107E
:102E20003549486004EB8400554B03EB4002162300
:102E300004FB03F01A3081B200231846FEF7C8FBEA
:102E400057E0601F022805D9052803D22D482A49DA
:102E5000486003E04FF050102749486004EB8400BD
:102E6000474B03EB4002601F162358431A3081B2D0
:102E70000023FA20FEF7ACFB3BE02348D0F84C03DC
:102E8000B8BB052C1AD2022C05D9052C03D21D483B
:102E90001949486003E04FF050101749486004EBAF
:102EA0008400384B03EB4002162304FB03F01A3076
:102EB00081B200231846FEF78BFB1AE0601F022840
:102EC00005D9052803D20F480B49486003E04FF0AD
:102ED00050100949486004EB84002A4B03EB400280
:102EE000601F162358431A3081B20023FA20FEF7E0
:102EF0006FFB641C0A2C47E02800001050030010F0
:102F00005441001034346500480200105C74010024
:102F1000326E64004155583A000000004F55543A53
:102F200000000000F3520300E08201004D65746868
:102F3000203A0000467265715B487A5D000000002F
:102F40004C65766C5B565D00B7BDCABD203A00008B
:102F5000C6B5C2CA5B487A5D00000000B5E7C6BDD1
:102F60005B565D0043705B465D000000445B205D86
:102F700000000000434D50003A00000004820100B0
:102F800040800100DC7F0100FFF439AFFFF7CEFE87
:102F90000020FEF7CCFF10BDF8B505464FF05010ED
:102FA000FD494860FD48D0F8880300EBC000FC49AB
:102FB000421801231A214920FEF70AFBF748D0F8EE
:102FC000900300EB400101EBC000F64942180123D9
:102FD00030214920FEF7FCFAF048D0F8940300EBCA
:102FE000400101EBC000F04942180123462149206D
:102FF000FEF7EEFAE948D0F8C40300EB400101EB1C
:10300000C000EA49421800231A2140F24310FEF79B
:10301000DFFAE248D0F8C80300EB400101EBC00042
:10302000E34942180123302140F24310FEF7D0FA61
:103030002878012800D100E0002006461EB1FF20BC
:10304000D549486003E04FF05010D3494860D2485A
:10305000406858234FF4C472442100904FF4A1708B
:10306000FDF7ABFECD48D0F8040100EB400101EBC9
:10307000C000D04942180123462140F24310FEF718
:10308000A7FAFEF7D5FB287801282FD16FF07F40F3
:10309000C1490860C8484860002424E08CB904EBAA
:1030A000440101EBC401C34BCA1804EB840154234F
:1030B00003EB0111143188B20023F121FEF788FAE5
:1030C00010E004EB440101EBC401BA4BCA1804EB55
:1030D0008401542303EB0111193188B20023F1213B
:1030E000FEF776FA641C022CD8D302E00020FEF72B
:1030F00002FDF8BDF8B505464FF05010A6494860EE
:103100002878012800D100E0002006461EB1FF20EB
:10311000A149486003E04FF050109F4948609E4825
:10312000406828234FF4E6721821009040F2A31063
:10313000FDF743FE9948D0F8180300EB400101EB7E
:10314000C0009C494218012318214FF4D270FEF7A9
:103150003FFAFEF76DFB287801282FD16FF07F40F2
:103160008D49086094484860002424E08CB904EB41
:10317000440101EBC4018F4BCA1804EB84015423B2
:1031800003EB0111143188B20023F121FEF720FA7C
:1031900010E004EB440101EBC401864BCA1804EBB8
:1031A0008401542303EB0111193188B20023F1216A
:1031B000FEF70EFA641C022CD8D302E00020FEF7C2
:1031C0009AFCF8BD70B50546012469E1022C05DDC5
:1031D000072C03DA79487049486003E04FF050103B
:1031E0006D494860601E6D4991F80D1401EB810135
:1031F00000EB410000EB8001714800EB810080682A
:10320000401C40B9332000EB041100236DA2F620CE
:10321000FEF741FA27E0621E604B93F80D3403EB92
:10322000830302EB430202EB8203654A02EB830253
:10323000117B621E594B93F80D3403EB830302EBB1
:10324000430202EB82035E4A02EB83020123906891
:103250000522FEF783FA332000EB041100235B4ABA
:10326000F620FEF718FA601E4C4991F80D1401EB98
:10327000810100EB410000EB8001554800EB81002B
:103280008068401C48B9332000EB041100234DA294
:103290004FF4AD70FEF7FFF928E0621E3F4B93F844
:1032A0000D3403EB830302EB430202EB8203484A33
:1032B00002EB8302117B621E384B93F80D3403EB53
:1032C000830302EB430202EB8203414A02EB8302D7
:1032D000012390680522FEF741FA332000EB041128
:1032E00000233A4A4FF4AD70FEF7D5F9601E2B4922
:1032F00091F80D1401EB810100EB41013548405C70
:10330000FF2809D1332000EB0411002332A24FF42F
:10331000DF70FEF7C0F91DE0601E204991F80D1422
:1033200001EB810100EB41012A48405C48B13320A8
:1033300000EB0411002329A24FF4DF70FEF7ABF974
:1033400008E0332000EB0411002325A24FF4DF70C6
:10335000FEF7A1F9022C05DD072C03DA17480E4908
:10336000486003E04FF050100B494860601E0B4965
:1033700091F80D1401EB810100EB41011948405C0B
:103380001E2831DD332000EB041100230DA226207E
:10339000FEF781F93FE0000028000010480200100D
:1033A000057701004C790100617B0100927B0100EF
:1033B0001A7C0100537C0100380031003434650070
:1033C000FC0700102D2D2D2D000000005441001091
:1033D00064180010CC2800102D00000050000000E0
:1033E0004600000056060010601EFE4B93F80D3498
:1033F00003EB830300EB4303FB48C05C00EB40039B
:1034000003EBC000F94BC218332000EB041100237A
:103410002620FEF740F9601EF24991F80D1401EBE9
:10342000810100EB4101F048D230405C022809DD07
:10343000332000EB04110023AFF278029220FEF754
:103440002AF917E0601EE74B93F80D3403EB830372
:1034500000EB4303E448D230C05C00EB400303EBD5
:10346000C000E34BC218332000EB0411002392206C
:10347000FEF711F9DB4991F80D1401EB810104EB22
:103480004100012303220021FEF768F9332000EBFD
:1034900004110023D74A0820FEF7FDF8601CC4B2CF
:1034A0000B2CFFF693AE70BDF8B5054628780228C0
:1034B00002D1FEF728FC05E02878022802DDA87872
:1034C000FEF773FC2878012805D1A87818B9FF20E9
:1034D000C949486003E04FF05010C7494860C648EA
:1034E00040682A235E221A2100903620FDF765FCF1
:1034F000BC48D0F8400300EBC000C049421800238C
:103500001A213620FEF764F82878022805D1A87819
:1035100018B9FF20B849486003E04FF05010B64991
:103520004860B548406842231E22322100900020A6
:10353000FDF743FC0023B2A232211846FEF748F8FB
:103540000324D0E12878A04206D1A878022803D12C
:10355000FF20A949486003E04FF05010A649486099
:10356000A54840680090A01E332202EB00101030E6
:1035700083B2A01E02EB001081B24FF49972FA20C0
:10358000FDF71BFCE01EE97801EB810100EB410037
:1035900000EB80019B4800EB81008068401C58B91B
:1035A000A01E332202EB001081B20023AFF2EC1216
:1035B000FA20FEF770F825E0E21EEB7803EB8303B8
:1035C00002EB430202EB82038E4A02EB8302117B81
:1035D000E21EEB7803EB830302EB430202EB820370
:1035E000884A02EB8302012390680522FEF7B6F8B1
:1035F000A01E332202EB001081B200237D4AFA2084
:10360000FEF749F82878A04206D1A878032803D10C
:10361000FF207949486003E04FF050107649486038
:10362000754840680090A01E332202EB0010103055
:1036300083B2A01E02EB001081B24FF4C1724FF4AE
:10364000A570FDF7BAFBE01EE97801EB810100EB04
:10365000410000EB80016C4800EB81008068401C59
:1036600060B9A01E332202EB001081B20023AFF23A
:10367000AC224FF4A570FEF70EF826E0E21EEB78C0
:1036800003EB830302EB430202EB82035E4A02EB8D
:103690008302117BE21EEB7803EB830302EB430210
:1036A00002EB8203584A02EB830201239068052251
:1036B000FEF754F8A01E332202EB001081B2002363
:1036C0004C4A4FF4A570FDF7E6FF2878A04206D1DA
:1036D000A878042803D1FF204749486003E04FF051
:1036E000501045494860444840680090A01E33226D
:1036F00002EB0010103083B2A01E02EB001081B26A
:1037000040F2DF124FF4D270FDF757FBE01EE9786C
:1037100001EB810100EB41013C48405CFF280CD1EA
:10372000A01E332202EB001081B20023AFF26C32F4
:103730004FF4D270FDF7AFFF0BE0A01E332202EB77
:10374000001081B20023AFF26C324FF4D270FDF75B
:10375000A2FF2878A04205D1A87818B9FF202649F1
:10376000486003E04FF05010234948602248406809
:103770000090A01E332202EB0010103083B2A01E76
:1037800002EB001081B27E222820FDF716FBE01E1E
:10379000E97801EB810100EB41011348405C3028DE
:1037A0000BDDA01E332202EB001081B20023AFF22A
:1037B000EC322820FDF76FFF2DE0E01EEB7803EBE5
:1037C000830300EB43030848C05C00EB400303EBBA
:1037D000C000064BC218A01E332303EB001081B2B9
:1037E000002315E048020010560600104C79010035
:1037F000617B010054410010280000100577010092
:103800004E6F2E00FC07001064180010CC2800102A
:103810002820FDF740FF2878A04206D1A87801288B
:1038200003D1FF20FB49486003E04FF05010F949F5
:103830004860F84840680090A01E332202EB001058
:10384000103083B2A01E02EB001081B2C4227E2091
:10385000FDF7B3FAE01EE97801EB810100EB4101CD
:10386000ED48405C02280BDDA01E332202EB001065
:1038700081B20023AFF2B4427E20FDF70CFF16E0C8
:10388000E01EEB7803EB830300EB4303E248C05CEC
:1038900000EB400303EBC000E04BC218A01E332333
:1038A00003EB001081B200237E20FDF7F4FE4FF001
:1038B0005010D84948604860E97801EB810104EB79
:1038C0004101881E012303220021FDF747FFA01EAE
:1038D000332202EB001081B20023D14A0820FDF709
:1038E000DAFE601CC4B20D2CFFF62CAEF8BDF8B5A4
:1038F00005464FF05010C74948602878012800D18C
:1039000000E0002006461EB1FF20C249486003E0E7
:103910004FF05010BF494860BE4840682A235822E3
:103920001A2100903020FDF748FABE4890F80C04A8
:1039300000EB8000BC49421801231A213020FDF71A
:1039400047FE2878022801D1012000E00020064629
:103950001EB1FF20AF49486003E04FF05010AD4961
:103960004860AC48406840231E2230210090082067
:10397000FDF723FA0123AFF2781230210820FDF77A
:1039800027FEFDF755FF2878012819D16FF07F40F9
:10399000A0490860A548486000240EE004EB8401BB
:1039A000A14BCA1804EB8401542303EB011188B224
:1039B0000023F121FDF70CFE641C022CEED320E065
:1039C000287802281AD16FF07F4092490860974802
:1039D000486000240FE0C4EBC401954BCA18E11CF9
:1039E00001EB8101542303EB011188B20023F12183
:1039F000FDF7EEFD641C022CEDD302E06878FEF7C3
:103A00007AF8F8BDF8B505468648D0F8D003012805
:103A10000FD14FF050107F4948600123854AD221D1
:103A20001E20FDF7D5FD0123824AD2219620FDF705
:103A3000CFFD2878012800D100E0002006461EB105
:103A4000FF207449486003E04FF05010714948600E
:103A5000704840682C23C022182100905720FDF7A1
:103A6000ACF97048D0F8880300EBC00072494218E6
:103A700001231A215820FDF7ABFD2878022801D137
:103A8000012000E0002006461EB1FF206149486089
:103A900003E04FF050105F4948605E4840684223A1
:103AA000C0222E2100905720FDF787F95D48D0F8FD
:103AB000900300EB400101EBC00060494218012374
:103AC00030215820FDF784FD2878032801D10120FA
:103AD00000E0002006461EB1FF204E49486003E08A
:103AE0004FF050104B4948604A4840685823C02264
:103AF000442100905720FDF760F94A48D0F894031C
:103B000000EB400101EBC00044494218012346216B
:103B10005820FDF75DFD2878042801D1012000E040
:103B2000002006461EB1FF203A49486003E04FF0EE
:103B3000501038494860374840682C234FF4DD72F4
:103B40001821009040F25110FDF737F93548D0F8B0
:103B5000C40300EB400101EBC000394942180023C7
:103B60001A214FF4A970FDF733FD2878052801D1FB
:103B7000012000E0002006461EB1FF2025494860D4
:103B800003E04FF050102349486022484068422328
:103B90004FF4DD722E21009040F25110FDF70DF927
:103BA0002048D0F8C80300EB400101EBC0002549D4
:103BB0004218012330214FF4A970FDF709FDFDF7EC
:103BC00037FE287806286ED2DFE800F00306F4F30B
:103BD000F2F1FDF758FFE1E1687800287AD16FF043
:103BE0007F400C49086011484860A87870BB0024E9
:103BF0000DE0154901EBC40204EB8401542303EBEF
:103C0000011188B20023F121FDF7E2FC641C052CB0
:103C1000EFD325E12800001028070010617B010088
:103C20005441001048020010697C01003800310046
:103C3000737C01005E7C0100057701004C79010076
:103C4000927B01001A7C0100C5750100FFE7A8788E
:103C5000012812D100240DE0FA4901EBC40204EB63
:103C60008401542303EB011188B20023F121FDF7F5
:103C7000AFFC641C052CEFD3F2E0A878022813D126
:103C800000240DE0F04901EBC40204EB840154234D
:103C900003EB011188B20023F121FDF799FC641CAC
:103CA000052CEFD3DCE078E1A878032813D10024B9
:103CB0000DE0E64901EBC40204EB8401542303EB5D
:103CC000011188B20023F121FDF782FC641C052C50
:103CD000EFD3C5E021E000240EE0DD4901EBC40292
:103CE00004EB8401542303EB01110F3188B200234C
:103CF000F121FDF76DFC641C042CEED30023D54AA2
:103D0000F22140F29310FDF763FC0023D2A2F221CE
:103D100040F2BD10FDF75CFCA2E0687801287DD17F
:103D20006FF07F40CD490860CD484860A87890B9D1
:103D300000240DE0CB4901EBC40204EB84015423C1
:103D400003EB011188B20023F121FDF741FC641C53
:103D5000052CEFD384E0A878012812D100240DE0CF
:103D6000C14901EBC40204EB8401542303EB0111AC
:103D700088B20023F121FDF72BFC641C052CEFD346
:103D80006EE0A878022816D100240DE0B74901EBB7
:103D9000C40204EB8401542303EB011188B2002315
:103DA000F121FDF715FC641C052CEFD358E0C9E0A8
:103DB0009DE082E055E0A878032812D100240DE0B0
:103DC000AA4901EBC40204EB8401542303EB011163
:103DD00088B20023F121FDF7FBFB641C052CEFD317
:103DE0003EE000240EE0A24901EBC40204EB840192
:103DF000542303EB0111143188B20023F121FDF7A4
:103E0000E7FB641C042CEED30023924AF22140F21B
:103E10009310FDF7DDFB00238E4A00E006E0283218
:103E2000F22140F2BD10FDF7D3FB19E06FF07F40A7
:103E30008A4908608A48486000238E4AF12154204C
:103E4000FDF7C6FB0023834AF22140F29310FDF7F1
:103E5000BFFB002388A2F22140F2BD10FDF7B8FBA2
:103E60009CE06FF07F407D4908607D4848600024F9
:103E700020E0012C01D0022C0ED1804901EBC402BC
:103E800004EB8401542303EB0111491D88B2002384
:103E9000F121FDF79DFB0CE0784901EBC40204EB36
:103EA0008401542303EB011188B20023F121FDF7B3
:103EB0008FFB641C042CDCD370E06FF07F406749FB
:103EC00008606748486000240EE06D4901EBC402B9
:103ED00004EB8401542303EB0111091D88B2002374
:103EE000F121FDF775FB641C022CEED356E06FF058
:103EF0007F405A4908605A48486000241FE0022C5D
:103F00000ED2604901EBC40204EB8401542303EB9D
:103F10000111103188B20023F121FDF759FB0DE0AA
:103F2000584901EBC40204EB8401542303EB011153
:103F3000091D88B20023F121FDF74AFB641C042C03
:103F4000DDD32BE06FF07F4044490860444848606F
:103F500000241FE0012C0ED14B4901EBC40204EBFD
:103F60008401542303EB0111143188B20023F121A1
:103F7000FDF72EFB0DE0444901EBC40204EB840184
:103F8000542303EB0111103188B20023F121FDF716
:103F90001FFB641C032CDDD300E000BF00BFF8BD95
:103FA000F8B505462878012800D100E00020064633
:103FB0001EB1FF202949486003E04FF05010274907
:103FC0004860264840682C23C022182100905720C2
:103FD000FCF7F3FE2D48D0F8880300EBC0002C4915
:103FE000421801231A215820FDF7F2FA28780228F6
:103FF00001D1012000E0002006461EB1FF20174934
:10400000486003E04FF0501014494860134840687E
:104010004223C0222E2100905720FCF7CEFE1B48E1
:10402000D0F8900300EB400101EBC00019494218A1
:10403000012330215820FDF7CBFA287803282BD113
:1040400001202AE0ED75010015760100657601007A
:104050004D750100A81C0000312F3200280000100F
:10406000380031008D760100B5760100DD76010063
:10407000757501009D750100332F3300397B0100F8
:10408000827B0100DF7B01003B7C010048020010C5
:10409000057701004C790100002006461EB1FF2083
:1040A000FD49486003E04FF05010FB494860FA4872
:1040B00040685823C022442100905720FCF77DFE21
:1040C000F648D0F8940300EB400101EBC000F4493E
:1040D0004218012346215820FDF77AFA287804284F
:1040E00001D1012000E0002006461EB1FF20EA4970
:1040F000486002E0EB48E8494860E74840686E23C2
:10410000C0225A2100905720FCF757FEE348D0F810
:10411000980300EB400101EBC000E3494218012382
:104120005C215820FDF754FA2878052801D1012098
:1041300000E0002006461EB1FF20D749486002E09B
:10414000D848D5494860D44840688423C0227021AB
:1041500000905720FCF731FED048D0F89C0300EBCC
:10416000400101EBC000D1494218002372215820C0
:10417000FDF72EFA2878062801D1012000E0002062
:1041800006461EB1FF20C449486003E04FF05010BE
:10419000C1494860C04840682C234FF4DD721821A3
:1041A000009040F25110FCF708FEBC48D0F84C03D8
:1041B00001280DD1B948D0F80404C0EBC000BC49B7
:1041C000421800231A214FF4A970FDF701FA10E0FC
:1041D000B248D0F84C0360B9B048D0F80404C0EB42
:1041E000C000B449421800231A214FF4A970FDF70A
:1041F000EFF92878072801D1012000E000200646C9
:104200001EB1FF20A449486003E04FF05010A249BE
:104210004860A148406842234FF4DD722E2100908F
:1042200040F25110FCF7C9FD9C48D0F8C40300EBE4
:10423000400101EBC000A0494218002330214FF497
:10424000A970FDF7C5F92878082801D1012000E000
:10425000002006461EB1FF208F49486003E04FF062
:1042600050108D4948608C48406858234FF4DD72E7
:104270004421009040F25110FCF79FFD8748D0F890
:10428000C80300EB400101EBC0008C494218012338
:1042900046214FF4A970FDF79BF92878092801D130
:1042A000012000E0002006461EB1FF207A49486048
:1042B00002E07C4878494860774840686E234FF4B4
:1042C000DD725A21009040F25110FCF776FD7348E0
:1042D000D0F8D00300EB400101EBC0007849421850
:1042E00001235C214FF4A970FDF772F928780A28A0
:1042F00001D1012000E0002006461EB1FF206649E2
:10430000486002E067486449486063484068842325
:104310004FF4DD727021009040F25110FCF74DFD1A
:104320005E48D0F80804C0EBC0006649421800237C
:1043300072214FF4A970FDF74BF9FDF779FA28784F
:104340000B287DD2DFE800F0060A618ECCEFEDECA1
:10435000EBEAE9006878FDF7EAFDDCE1687840BB4C
:104360006FF07F404C4908605748486000240EE0D9
:10437000564901EBC40204EB8401542303EB011101
:104380000E3188B20023F121FDF722F9641C042CC0
:10439000EED300234E4AF22140F29310FDF718F9B4
:1043A0000023AFF24C32F22140F2BD10FDF710F9BC
:1043B0002AE06878012827D16FF07F4036490860ED
:1043C0004148486000240EE0424901EBC40204EB7E
:1043D0008401542303EB01110E3188B20023F12133
:1043E000FDF7F6F8641C042CEED30023384AF221C2
:1043F00040F29310FDF7ECF80023354A2832F22101
:1044000040F2BD10FDF7E4F885E16FF07F402249EE
:1044100008602D484860002421E0012C01D0022CC6
:104420000FD12D4901EBC40204EB8401542303EBAB
:104430000111091D88B20023F121FDF7C9F80DE033
:1044400068E1254901EBC40204EB8401542303EB2A
:10445000011188B20023F121FDF7BAF8641C042C85
:10446000DBD358E16FF07F400B4908601648486085
:1044700000240EE0194901EBC40204EB840154232B
:1044800003EB0111091D88B20023F121FDF7A0F80B
:10449000641C022CEED33EE12800001048020010FC
:1044A000617B010034346500F27C0100647D010011
:1044B0000F7B0100247B0100927B01001A7C01002C
:1044C0001C7E01007C850100380031004D75010023
:1044D000A81C000075750100397B0100827B01007A
:1044E0006FF07F40FE490860FE484860002411E0FC
:1044F00004EB440101EBC401FB4BCA1804EB84013B
:10450000542303EB0111143188B20023F121FDF78C
:104510005FF8641C042CEBD3FDE0E1E0B6E08AE038
:104520005EE030E0FFE76FF07F40ED490860ED4866
:104530004860002424E08CB904EB440101EBC40181
:10454000EA4BCA1804EB8401542303EB01110E312A
:1045500088B20023F121FDF73BF810E004EB4401A1
:1045600001EBC401E14BCA1804EB8401542303EBB3
:104570000111133188B20023F121FDF729F8641CE1
:10458000022CD8D3C7E06FF07F40D5490860D548EA
:104590004860002421E0022C0FD1C4EBC401D44BAD
:1045A000CA1804EB8401542303EB01110A3188B2C9
:1045B0000023F121FDF70CF80EE0C4EBC401CC4B55
:1045C000CA1804EB8401542303EB0111123188B2A1
:1045D0000023F121FCF7FCFF641C032CDBD39AE0E1
:1045E0006FF07F40BE490860BE48486000241FE06D
:1045F000022C0ED2BF4901EBC40204EB8401542308
:1046000003EB0111103188B20023F121FCF7E0FF28
:104610000DE0B84901EBC40204EB8401542303EB21
:104620000111091D88B20023F121FCF7D1FF641CA0
:10463000042CDDD36FE06FF07F40A9490860A948E2
:10464000486000241FE0012C0ED1AB4901EBC402ED
:1046500004EB8401542303EB0111143188B20023CD
:10466000F121FCF7B5FF0DE0A34901EBC40204EB17
:104670008401542303EB0111103188B20023F1218E
:10468000FCF7A6FF641C032CDDD344E06FF07F40F1
:10469000934908609348486000241EE074B9974924
:1046A00001EBC40204EB8401542303EB0111193123
:1046B00088B20023F121FCF78BFF0DE08F4901EB5D
:1046C000C40204EB8401542303EB0111143188B2BA
:1046D0000023F121FCF77CFF641C022CDED31AE0DE
:1046E0006FF07F407E4908607E48486000240EE0FD
:1046F000834901EBC40204EB8401542303EB011151
:10470000091D88B20023F121FCF762FF641C022C12
:10471000EED300E000BF00BFF8BD2DE9F041044634
:104720000D46164604EB4403764FDA19B1B2A8B22F
:104730000123FCF7B0FFBDE8F081F8B505464FF066
:104740005010674948607048D0F8FC0078B96E494D
:104750003F22D1F888034FF4B971FFF7DEFF6A49B1
:104760003F22D1F88803C821FFF7D7FF0CE00023D0
:1047700066A23F214FF4B970FCF78DFF002363A2BE
:104780003F21C820FCF787FF2878012800D100E0EE
:10479000002006461EB1FF205149486003E04FF05B
:1047A00050104F4948604E4840682A2399221821EA
:1047B00000904520FCF701FB5348D0F8880300EB3C
:1047C000C00053494218012318214620FCF700FF7E
:1047D0002878022801D1012000E0002006461EB101
:1047E000FF203F49486003E04FF050103C494860CB
:1047F000454A92F8EC100023D2F8E8000522FCF7B5
:10480000ADFF374840682A2340F245121821009036
:10481000E220FCF7D2FA01233E4A1821E520FCF7FA
:10482000D7FE3948D0F8F00000EB40003A49421872
:104830000123182140F22910FCF7CAFE3249182240
:10484000D1F8880340F23311FDF7B1FF287803282F
:1048500001D1012000E0002006461EB1FF202049C2
:10486000486003E04FF050101D4948601C48406804
:104870002A2340F2DD121821009040F28F10FCF73D
:104880009CFA2148D0F8FC00244901EB8002012366
:1048900018214FF4C870FCF79BFE2878042801D13A
:1048A000012000E0002006461EB1FF200C494860B0
:1048B00003E04FF050100A494860094840683E2321
:1048C00099222C2100904520FCF777FA0E48D0F869
:1048D000E00000EB80001249421800232C2121E067
:1048E0002800001038003100F27C0100647D0100D6
:1048F000247B0100DF7B01003B7C0100BC7C0100CC
:104900000A7C010016860100480200102500000004
:104910000577010054410010E98501005E84010023
:10492000B27C01004620FCF753FE2878052801D10F
:10493000012000E0002006461EB1FF20FD4948602E
:1049400003E04FF05010FB494860FA4840683E23AE
:104950004FF49C722C210090E420FCF72EFAF648CC
:10496000D0F8040100EB8000F449421801232C2107
:10497000E520FCF72DFE06246DE02878A04203D147
:10498000FF20EC4948600CE0A01F022805D9072849
:1049900003D2EB48E749486003E04FF05010E54987
:1049A0004860E44840680090A01FC0EB00105C30F5
:1049B00083B2A01FC0EB00104C3081B2E6229420DD
:1049C000FCF7FBF9A01F00EB4001DE4800EB0110F3
:1049D0004068A0B3A21F02EB4203DA4A02EB0312C3
:1049E000117AA21F02EB4203D64A02EB0312002304
:1049F00050680522FCF7B2FEA01FC0EB00104C303F
:104A000081B20123D04AA020FCF745FECA48D0F865
:104A1000FC00F8B9A01F00EB4003CA4800EB0310EC
:104A2000C06800EB4000C94BC218A01FC0EB0010CB
:104A30004C3081B20123D020FCF72DFE0AE0FFE7C5
:104A4000A01FC0EB00104C3081B20123C04AA0204F
:104A5000FCF721FE641C102C8FD310247DE02878F5
:104A6000A04203D1FF20B34948600DE0A4F110003B
:104A7000022805D9072803D2B148AE49486003E0AF
:104A80004FF05010AB494860AA4840680090A4F12C
:104A90001000C0EB00105C3083B2A4F11000C0EB3A
:104AA00000104C3081B24FF4C3724FF49A70FCF78F
:104AB00084F9A4F1100000EB4001A24800EB0110C2
:104AC000C069E0B3A4F1100202EB42039D4A02EB7D
:104AD000031292F82010A4F1100202EB4203994A4B
:104AE00002EB03120023D0690522FCF737FEA4F184
:104AF0001000C0EB00104C3081B20023924A4FF4FA
:104B0000A570FCF7C8FD8C48D0F8FC0020BBA4F1D0
:104B1000100000EB40038B4800EB0310406A00EBF1
:104B200040008A4BC218A4F11000C0EB00104C30BA
:104B300081B201234FF4BD70FCF7ADFD0CE0FFE73F
:104B4000A4F11000C0EB00104C3081B20123804A68
:104B50004FF4A570FCF79FFD641C1A2CFFF47FAF87
:104B6000FCF766FE2878062879D2DFE800F0030714
:104B70000809335F6878FDF7DAF9AFE0AEE0ADE041
:104B80006FF07F406B4908607248486000241EE067
:104B900074B9714901EB840204EB8401542303EBE3
:104BA0000111143188B20023F121FCF711FD0DE051
:104BB000694901EB840204EB8401542303EB0111E6
:104BC0001E3188B20023F121FCF702FD641C022C87
:104BD000DED383E06FF07F40564908605D4848604F
:104BE000002420E07CB904EB8401544BCA1804EB88
:104BF0008401542303EB0111143188B20023F12105
:104C0000FCF7E6FC0EE004EB84014C4BCA1804EB05
:104C10008401542303EB0111193188B20023F121DF
:104C2000FCF7D6FC641C022CDCD357E06FF07F400D
:104C30004049086047484860002421E084B904EBFB
:104C400084013E4BCA1804EB8401542303EB011189
:104C5000143188B20023F121FCF7BAFC0FE012E016
:104C600004EB8401354BCA1804EB8401542303EB95
:104C70000111193188B20023F121FCF7A9FC641C51
:104C8000022CDBD32AE06FF07F402A4908603148CC
:104C900048602948D0F84C0301280DD100232FA2E9
:104CA000F1215D20FCF794FC00232EA2F2214FF4A9
:104CB000CA70FCF78DFC10E01F48D0F84C0360B9B7
:104CC00000232AA2F1215D20FCF782FC002329A207
:104CD000F2214FF4CA70FCF77BFC00BF00BFF8BDA7
:104CE000F8B505462878012800D100E000200646E6
:104CF0001EB1FF200F49486003E04FF050100D49EE
:104D000048600C4840682C23C0221821009058208D
:104D1000FCF753F80848006800EB80000749421888
:104D200001231A215820FCF753FC2878022827D1A8
:104D3000012026E02800001048020010B27C01008B
:104D4000343465005003001054410010E98501001F
:104D5000F02A0000380031005E84010043656C20B9
:104D60005200000043656C4C69737400C7E5B3FDE5
:104D7000D0D00000C7E5B3FDB1EDB8F100000000F0
:104D8000002006461EB1FF20F949486003E04FF0BD
:104D90005010F7494860F64840684223C0222E214F
:104DA00000905820FCF709F8F248406800EB8000BA
:104DB000F1494218012330215820FCF709FCFCF787
:104DC00037FD2878152878D2DFE800F00B0F95BF63
:104DD000D8EFEEEDECEBEAE9E8E7E6E5E4E3E2E163
:104DE000E0006878FDF7A3F86FE2687848BB6FF0E1
:104DF0007F40DF490860E148486000241EE074B944
:104E0000DF4901EBC40204EB8401542303EB0111DD
:104E1000133188B20023F121FCF7DAFB0DE0D84909
:104E200001EBC40204EB8401542303EB011118319C
:104E300088B20023F121FCF7CBFB641C022CDED3EB
:104E400058E06878012839D16FF07F40C849086080
:104E5000CA48486000241FE0032C0ED1C94901EB69
:104E6000C40204EB8401542303EB0111133188B213
:104E70000023F121FCF7ACFB0DE0C24901EBC402B9
:104E800004EB8401542303EB01110E3188B200239B
:104E9000F121FCF79DFB641C042CDDD30023BA4AEE
:104EA000F22140F29310FCF793FB0023B7A2F2210A
:104EB00040F2BD10FCF78CFB1CE005E26FF07F4078
:104EC000AB490860AD4848600023B14A4FF4827195
:104ED0005420FCF77DFB0023AB4AF22140F29310F3
:104EE000FCF776FB0023AFF67062F22140F2BD10B2
:104EF000FCF76EFBE9E16FF07F409D4908609F4839
:104F0000486000241EE074B9A24901EBC40204EB1E
:104F10008401542303EB0111133188B20023F121E2
:104F2000FCF756FB0DE09B4901EBC40204EB840146
:104F3000542303EB0111183188B20023F121FCF74F
:104F400047FB641C022CDED3BFE16FF07F40884931
:104F500008608A48486000240DE08F4901EBC402D4
:104F600004EB8401542303EB011188B20023F121E7
:104F7000FCF72EFB641C022CEFD3A6E16FF07F4000
:104F80007B4908607D484860002420E09BE199E16E
:104F900097E17AE160E143E129E10FE1CCE0B2E0A1
:104FA00098E07EE064E04AE02DE013E004EB440189
:104FB00001EBC401794BCA1804EB8401542303EBC1
:104FC000011188B20023F121FCF702FB641C042CC0
:104FD000ECD37AE16FF07F4065490860674848602C
:104FE00000240DE06E4901EBC40204EB840154235C
:104FF00003EB011188B20023F121FCF7E9FA641CEC
:10500000022CEFD361E16FF07F40594908605B48A3
:105010004860002410E004EB440101EBC401614B43
:10502000CA1804EB8401542303EB011188B2002356
:10503000F121FCF7CDFA641C022CECD345E16FF0B2
:105040007F404B4908604D48486000240DE05649B8
:1050500001EBC40204EB8401542303EB011188B279
:105060000023F121FCF7B4FA641C022CEFD32CE1ED
:105070006FF07F403E4908604048486000240DE0E2
:10508000494901EBC40204EB8401542303EB0111F1
:1050900088B20023F121FCF79BFA641C022CEFD3A9
:1050A00013E16FF07F4032490860344848600024C3
:1050B0000DE03E4901EBC40204EB8401542303EBF1
:1050C000011188B20023F121FCF782FA641C032C41
:1050D000EFD3FAE06FF07F40254908602748486029
:1050E00000240DE0324901EBC40204EB8401542397
:1050F00003EB011188B20023F121FCF769FA641C6B
:10510000042CEFD3E1E06FF07F40194908601B48A1
:10511000486000240DE0274901EBC40204EB840140
:10512000542303EB011188B20023F121FCF750FA5C
:10513000641C032CEFD3C8E06FF07F400C4908607B
:105140000E484860002410E004EB440101EBC40168
:10515000194BCA1804EB8401542303EB011188B2E4
:105160000023F121FCF734FA641C022CECD3ACE0F0
:105170002800001048020010B27C01003800310005
:10518000D483010075750100A81C0000322F330084
:105190009D75010004840100827B0100F27C010006
:1051A000BC7C0100647D01000A7C0100BB7D010024
:1051B000DF7B01003B7C0100537C01006FF07F40EE
:1051C000FE490860FE48486000240DE0FD4901EBFF
:1051D000C40204EB8401542303EB011188B20023C1
:1051E000F121FCF7F5F9641C022CEFD36DE06FF0B0
:1051F0007F40F2490860F248486000240DE0F2491F
:1052000001EBC40204EB8401542303EB011188B2C7
:105210000023F121FCF7DCF9641C022CEFD354E0ED
:105220006FF07F40E5490860E5484860002410E0E1
:1052300004EB440101EBC401E44BCA1804EB840104
:10524000542303EB011188B20023F121FCF7C0F9CC
:10525000641C022CECD338E06FF07F40D749086023
:10526000D748486000240DE0D94901EBC40204EBA3
:105270008401542303EB011188B20023F121FCF7D0
:10528000A7F9641C042CEFD31FE06FF07F40CB49DB
:105290000860CB484860002410E004EB440101EBB7
:1052A000C401CA4BCA1804EB8401542303EB011157
:1052B00088B20023F121FCF78BF9641C042CECD399
:1052C00003E002E001E000E000BF00BFF8BDF8B578
:1052D00005462878012800D100E0002006461EB1CE
:1052E000FF20B649486003E04FF05010B3494860D2
:1052F000B24840682C23C0221A2100905E20FBF7A0
:105300005CFDB448D0F84C03012806D10023B2A2BA
:105310001C215F20FCF75CF909E0AE48D0F84C0393
:1053200028B90023AEA21C215F20FCF751F9287890
:10533000022801D1012000E0002006461EB1FF2016
:105340009E49486003E04FF050109C4948609B48DC
:1053500040684223C022302100905E20FBF72DFDE3
:10536000A14890F87D0200EB8000A049421801237B
:1053700032215F20FCF72CF92878032801D1012085
:1053800000E0002006461EB1FF208C49486003E083
:105390004FF0501089494860884840685823C0221F
:1053A000462100905E20FBF708FD8F4890F87E02B2
:1053B00000EB80008D494218012348215F20FCF753
:1053C00007F92878042801D1012000E000200646D2
:1053D0001EB1FF207949486003E04FF05010774933
:1053E0004860764840686E23C0225C2100905E20B1
:1053F000FBF7E3FC7748D0F84C037D4901EBC00292
:1054000000235E215F20FCF7E3F82878052801D10E
:10541000012000E0002006461EB1FF2067494860D9
:1054200003E04FF0501065494860644840688423A9
:10543000C022722100905E20FBF7BFFC00236DA20A
:1054400074215F20FCF7C4F82878062801D10120D8
:1054500000E0002006461EB1FF205849486003E0E6
:105460004FF0501055494860544840689A237322C1
:10547000882100905E20FBF7A0FC604901230222F6
:10548000C8690021FCF76AF900235D4A8A215F2080
:10549000FCF79EF84FF0501048494860002359A28D
:1054A0008A217320FCF794F82878072801D101207D
:1054B00000E0002006461EB1FF204049486003E09E
:1054C0004FF050103D4948603C4840689A23912273
:1054D000882100907C20FBF770FC484901230222C0
:1054E00088690021FCF73AF90023454A8A217D208A
:1054F000FCF76EF84FF0501030494860002341A28D
:105500008A219120FCF764F82878082801D101202D
:1055100000E0002006461EB1FF202849486003E055
:105520004FF0501025494860244840689A23B12222
:10553000882100909C20FBF740FC30490123022287
:10554000C8680021FCF70AF900202D498870002363
:105550000A468A219D20FCF73BF84FF0501017496E
:105560004860002328A2A0211846FCF731F8002348
:10557000284AA0215E20FCF72BF82878092801D1C1
:10558000012000E0002006461EB1FF200B494860C4
:1055900003E04FF0501009494860084840682C2348
:1055A0004FF4DD721A2100904FF4AC70FBF705FC4C
:1055B0000D4890F87C02C0EBC0002DE028000010E0
:1055C000380031000A7C0100BC7C0100427E0100F1
:1055D000DF7B010048020010427269640000000095
:1055E000B5E7C7C500000000543D0010B27C0100C3
:1055F0006C850100484F4C440000000060410010E1
:10560000544100102D00000046616374204E6F2E3F
:105610003A000000D33F0010FC49421800231C212F
:1056200040F25910FBF7D4FF28780A2801D1012055
:1056300000E0002006461EB1FF20F549486003E067
:105640004FF05010F2494860F148406842234FF44F
:10565000DD72302100904FF4AC70FBF7AEFBED48EB
:10566000D0F87803C0EBC000EB4942180123322187
:1056700040F25910FBF7ACFF28780B2801D101202C
:1056800000E0002006461EB1FF20E149486003E02B
:105690004FF05010DE494860DD48406858234FF411
:1056A000DD72462100904FF4AC70FBF786FBD948C1
:1056B000D0F87C03C0EBC000D84942180123482130
:1056C00040F25910FBF784FF28780C2801D1012003
:1056D00000E0002006461EB1FF20CD49486003E0EF
:1056E0004FF05010CA494860C94840686E234FF4D3
:1056F000DD725C2100904FF4AC70FBF75EFBC54897
:10570000C7A1D0F88023C7480CF0DEFD0123C54AAD
:105710005E2140F25910FBF75BFF28780D2801D17C
:10572000012000E0002006461EB1FF20B849486075
:1057300003E04FF05010B6494860B54840688423F4
:105740004FF4DD72722100904FF4AC70FBF735FB23
:10575000B048D0F8840300EB8000B349421801231D
:10576000742140F25910FBF733FF28780E2801D13D
:10577000012000E0002006461EB1FF20A449486039
:1057800003E04FF05010A2494860A14840689A23B6
:1057900040F26D12882100904FF4AC70FBF70DFBC6
:1057A000A2490123022288680021FBF7D7FF0023CA
:1057B0009C4A8A2140F25910FBF70AFF4FF0501023
:1057C000934948600023AFF2B8128A2140F26D106D
:1057D000FBF7FEFE28780F2801D1012000E0002011
:1057E00006461EB1FF208A49486003E04FF0501082
:1057F00087494860864840689A2340F28B12882186
:1058000000904FF4BB70FBF7D8FA884901230222BD
:1058100048680021FBF7A2FF0023824A8A2140F258
:105820007710FBF7D5FE4FF0501079494860002300
:10583000AFF224228A2140F28B10FBF7C9FE2878B0
:10584000102801D1012000E0002006461EB1FF20F3
:105850006F49486003E04FF050106D4948606C4854
:1058600040689A2340F2AB12882100904FF4CB702D
:10587000FBF7A3FA6D490123022208680021FBF718
:105880006DFF00206749887000230A468A2140F294
:105890009710FBF79DFEFBF7CBFF287816287DD2EB
:1058A000DFE800F00B0E2D5783A6CCF3F1F0EFEEFE
:1058B000EDECEBEAE97C7CE8E7E6FCF7DEFC36E2BF
:1058C0006FF07F4052490860594848605148D0F80D
:1058D0004C03012807D10023AFF20432F1216620E6
:1058E000FBF776FE0AE04B48D0F84C0330B90023B2
:1058F000AFF21432F1216620FBF76AFE17E26FF077
:105900007F40434908604A48486000241EE05CB973
:1059100004EB440000EBC400464942180023F12187
:105920006720FBF755FE10E004EB440101EBC401D6
:10593000404BCA1804EB8401542303EB01111831C6
:1059400088B20023F121FBF743FE641C022CDED356
:10595000EDE16FF07F402E49086035484860002433
:1059600020E05CB904EB440000EBC400314942186C
:105970000023F1216720FBF72BFE12E004EB44012A
:1059800001EBC4012B4BCA1804EB8401542303EB35
:105990000111183188B20023F12100E0C6E1FBF7C4
:1059A00017FE641C022CDCD3C1E16FF07F40184964
:1059B00008601F484860002417E044B91E4800EB07
:1059C000C4020023F1216620FBF702FE0CE01A4915
:1059D00001EBC40204EB8401542303EB011188B2F0
:1059E0000023F121FBF7F4FD641C022CE5D39EE1BA
:1059F0006FF07F40064908600D4848600023AFF211
:105A00000C42F1216220FBF7E3FD90E17C8501006F
:105A10002800001048020010817C01008F7C0100EA
:105A20002532640054410010B27C01006041001036
:105A300038003100537C01006C8501006FF07F401D
:105A4000F8490860F848486000240EE0F74901EB87
:105A5000C40204EB8401542303EB0111091D88B235
:105A60000023F121FBF7B4FD641C022CEED35EE1B0
:105A70005BE159E157E13CE121E106E1DBE0C0E017
:105A80007DE050E035E01AE0FFE76FF07F40E54948
:105A90000860E548486000240EE0E44901EBC402D8
:105AA00004EB8401542303EB0111091D88B2002388
:105AB000F121FBF78DFD641C022CEED337E16FF072
:105AC0007F40D8490860D848486000240EE0D74994
:105AD00001EBC40204EB8401542303EB0111091D03
